:020000040800F2
:1000000028100020658000083D7B00083F7B000829
:10001000417B0008437B0008457B0008000000008E
:10002000000000000000000000000000477B000806
:10003000497B0008000000004B7B00084D7B000856
:10004000898000088D800008918000089580000854
:10005000998000089D800008A1800008A580000804
:10006000A9800008AD800008B1800008B5800008B4
:10007000B9800008BD800008517B0008577B00084C
:100080005D7B0008637B0008C1800008C580000814
:10009000C9800008CD800008D1800008697B000875
:1000A000D5800008D9800008DD800008E1800008C4
:1000B000E58000088B7B0008E9800008ED800008DF
:1000C000F1800008F5800008F9800008FD80000834
:1000D0009B7B0008A17B0008CB7B00080181000806
:1000E00005810008098100080D8100082DE9F14F04
:1000F000B2B09946924600230691CDE900333C9A6E
:100100000F930DF14A0114914A7011E0329E574647
:100110002C4617F8011B0698B0470028069000F0FF
:1001200026810F98401C641E0F90F2D13296AA448B
:100130009AF80000252808D10021002209910A928E
:100140000B910C920D910E920FE06A464FF0FF3129
:10015000504601F0BEF8050002D10F9800F066BECF
:10016000D4D50125E3E741F001011AF8010F202859
:10017000F9D023280CD02B2804D02D2805D03028E6
:1001800009D00BE041F00201EFE741F00401ECE798
:1001900041F00801E9E741F01001E6E72A280FD114
:1001A000D9F8002052F8040BC9F80020002811905B
:1001B00003D54042119041F004010AF1010A14E014
:1001C0001192DFF8EC3B0AE01198984205DA00EB57
:1001D000800402EB4402303A11920AF1010A9AF8C3
:1001E0000020A2F130000A28EED39AF800002E2851
:1001F00003D04FF0FF32109229E01AF8010F2A289D
:1002000009D1D9F8000050F8042BC9F80000109269
:100210000AF1010A1BE02D280CBF0AF1010A002097
:1002200000221092DFF8882B0BE040B9109B93421C
:1002300005DA03EB830504EB4504303C10940AF126
:10024000010A9AF80040A4F130030A2BEDD3ADF86F
:1002500048100FF660309AF8001001F04BF808B122
:100260001AF8010B8DF84A009DF84A00682805D15C
:100270009AF8000068280CD1622106E06C2804BFBF
:100280009AF800006C2804D171218DF84A100AF107
:10029000010A1FA808901AF801BBBBF125012DD057
:1002A0001C3900F06181091F022940F25D810E397D
:1002B0002AD0491F00F0B384093900F05581891E06
:1002C00000F04985491E00F0F584491E022940F2DC
:1002D0004B81091F00F0EE84491F00F0BA80491ECF
:1002E00000F09D84491E65D0C91E21D0891E00F0F2
:1002F0009684C91E00F0938400F04CBD25238DF830
:100300007C30012109912AE06C208DF84A00D9F84F
:10031000000050F8042BC9F80000002A43D11499BA
:10032000487800283DD04FF0FF340FF6902012E0BF
:100330009DF84A006C28EAD0D9F8000050F8044B28
:10034000C9F800000794D4B91499487898B14FF0CF
:10035000FF340FF6842000F0EBFF201A07D132980B
:100360001FAA04A900F065FD00287FF5E1AE4FF05B
:10037000FF3000F05BBD0FF67C200790EFE7109D8B
:10038000002D04D5204600F0F3FF044607E02A467E
:10039000204600F0F7FF002814BF041B2C460A94E7
:1003A000DDE70FF65422329804A900F0C8FD0028BA
:1003B000D5D5DCE7D9F8001051F8040BC9F80010C6
:1003C00020F00004002121F0FF351FABCDE90445EA
:1003D0000793DDE9042308993C2413B90AB910985E
:1003E00098B102F00F053035641EEEB23A2EA8BF68
:1003F0002735120942EA03721B090D5508BF002A6E
:1004000003D007980D19A842EBD308190790C4F13F
:100410003C0210980A92824209DABDF84810821A0A
:100420004FF6EF7001400C92ADF8481097E70028A6
:1004300095D59DF8480000F0140010288FD1119B2D
:1004400009990C985B1A1B1A9A1A002A87DD0C92DC
:1004500085E71499487820B14FF0FF340FF69C10CF
:1004600079E79DF84A00622862D0682819D06A2886
:1004700040D06C2806D071284DD074282DD07A2811
:100480001ED064E0D9F8001051F8040BC9F8001030
:1004900020B94FF0FF340FF67C105CE70F99016034
:1004A0005DE7D9F8001051F8040BC9F8001020B925
:1004B0004FF0FF340FF65C104DE70F9901804EE7C7
:1004C000D9F8001051F8040BC9F800100028E5D144
:1004D0004FF0FF340FF63C103DE7D9F8001051F80B
:1004E000040BC9F800100028D8D14FF0FF340FF6E4
:1004F000241030E7D9F8001051F8040BC9F80010A7
:1005000020B94FF0FF340FF60C1024E70F9AD317E1
:10051000C0E9002323E7D9F8001051F8040BC9F80B
:1005200000100028F2D14FF0FF340FF6E80012E778
:10053000D9F8001051F8040BC9F8001020B94FF099
:10054000FF340FF6D00006E70F99017007E7D9F8DE
:10055000001051F8040BC9F8001000289ED14FF08C
:10056000FF340FF6B000F6E6D9F80020D21D22F0D5
:100570000702C9F80020D2E900010832C9F80020BA
:10058000CDE90401C80F02D009982D210AE0BDF879
:100590004800810702D509982B2103E0C00705D543
:1005A000099820211FAA1154401C0990DDE9042359
:1005B00009991FA8CDE92E2308444BF02001612999
:1005C000079015AC0BD01099002902D50621109187
:1005D00005E001BF4BF02001672901221092DDE9FF
:1005E000042359004915491C10D11A030ED0ABF150
:1005F000610503211A2D0A9102D20FF6A43101E000
:100600000FF6A031032200F0E9FEA8E659004915D3
:10061000491C0AD11A0308D1ABF1610503211A2D37
:100620000A9116D30FF68431ECE7DDE90401CDE938
:100630003001DDE9302323F00047B7F5801F22F0B9
:1006400000060DD20022002F08BF002E029203D117
:1006500016E00FF65431D5E702AA00F0CBFE0FE00A
:10066000DFF8EC0ADFF8EC1A00EB17500290DDE936
:1006700030234FF0FF301940DFF8DC7A1040394367
:10068000CDE904014BF0200061280DD107983021FD
:100690000170821CBBF1610F07920CBF78215821B9
:1006A00041700998801C0990DDE9040120F00002E6
:1006B00031F0004308BF002A02D10026002571E175
:1006C0004BF02008B8F1610F40F0BE801098002870
:1006D00047BF21210391401C0390039FDDE92E01B8
:1006E0007F1C00220023DDE9044500F0BBFE0299D7
:1006F0008DF8542038BF85F00045091F002F029166
:100700000DF155065DDDDFF8541ACDE9302140F2D8
:10071000FF732E93204629460022002300F0C8FED6
:100720004FD24800400D00F11C0215D0002A13DD05
:100730002E9B9A420ADBDDE9300121F0004205F0F0
:1007400000400243DDE93001114611E06FF31E5114
:1007500041EA025120460BE024F0000035F0004150
:1007600008BF00280FBF29461C22294600F0BCFE06
:1007700004460D4600F056FFFF1F002F804609DD9E
:1007800000F06EFF02460B462046294600F07AFF35
:1007900004460D46F01D0721B8F1000F0CDD491E7F
:1007A0005EBF08F00F0200F8012D4FEA2818F3D5BC
:1007B00002E0002200F8012D491EFAD5C61D002FC7
:1007C000A8DC0DF15500361A03988642D8BF304692
:1007D00000280DF1550430D4B04206DA0DF1550170
:1007E0000A5C082AA8BF0F2100DA0021024615ABD7
:1007F000134400E0401E13F80159521E8D42F9D0F7
:100800000F2904D10DF155018B5C5B1C8B54002A20
:1008100004D50299091D15AC401C0291411E0CD44F
:100820006218ABF13A0613783033DDB23A2DA8BF27
:10083000F318491E02F80139F5D51099002940F145
:10084000AF80421E1092ABE00299DFF8142947F204
:100850009750414391FBF2F2DDE92E45029225F0DB
:100860000045D2F1070204DD2046294600F04CFC89
:100870000BE052420020DFF8EC1800F045FC024685
:100880000B462046294600F06FFF0446B8F1660F7C
:10089000109806BF029F0A3706273F18142FC8BFBB
:1008A000142730208DF854000D460020DFF8B818CA
:1008B000CDE92E010DF15506002F33DD20462946E6
:1008C00001F076F801460A4606F1080304200A26DC
:1008D000B2FBF6F606EB860EA2EB4E02303203F8C0
:1008E000012C0A22B6FBF2F202EB820EA6EB4E06B8
:1008F0003036401E03F8026DE9D1083F002F03F1A6
:100900000806D9DD084601F067F802460B46204686
:10091000294600F0B7FEDDE92E2301F06BF804460E
:100920000D46CBE70DF15500361A0DF1550404E0E4
:100930000298401E761E0290641C20783028F7D062
:10094000B8F1660F02D10299491C04E0B8F1650FB5
:100950000CBF01210021109808188642B8BF701EF4
:1009600000281DD4B04204DA215C3429C8BF3921E3
:1009700000DC30210246631E9D1800E0401E15F881
:100980000169521E8E42F9D0392902D1A15C491C5D
:10099000A154002A04D50299491C1C46401C02910E
:1009A0000646029D00F09FFC406A0778DDF8408013
:1009B00030B2002802DC01260FF2F4744BF0200064
:1009C000662808BF6D1C16D0672846D128B210F1E2
:1009D000040F48DB404546DA9DF848006D1C0107CE
:1009E00003D430B24045B8BF804628B2B8EB000807
:1009F00048BF4FF000080FFA85FB07980A99BBF132
:100A0000000F00F3B2804A1C0A9230234354B8F11D
:100A1000000F03DC9DF84800010704D50A98411C2B
:100A20000A9107990F5418EB0B0FB8BFC8F10005D6
:100A30002DB268420D90A84432B29045B8BF4646E8
:100A4000079B0A9836B20B9632462146184400F0AE
:100A5000C5FCA8EB06000E90CBE0BBF1610F17D1EF
:100A60004FF0700B19E030B2404504DA9DF84810A1
:100A70000A0758BF8046B8F1010848BF4FF0000888
:100A8000BBF1670F14BF4FF0450B4FF0650B04E04F
:100A9000BBF1410F08BF4FF0500B0A98411C0A915F
:100AA000B8F1000F079914F8012B0A5403DC9DF8E4
:100AB000480001071AD50A98411C0A91B8F1000FA5
:100AC00007990F5412DD761E30B2804507980A9BB5
:100AD000B8BF464632B22146184400F07FFC0A995E
:100AE00036B271180A91A8EB06000D9007980A9982
:100AF00008442AB2002A80F800B003D42B224270A6
:100B0000811C04E02D2141701546811C6D4200209E
:100B10002EAA0A2409E02B4693FBF4F505EB850683
:100B2000A3EB460302F8013B401C2DB2002DF2DC82
:100B3000012806DC4BF02002652A04BF302201F8B0
:100B4000012B00282EAA08D1302001F8010B06E065
:100B5000401E135C303301F8013B0028F8DC079A93
:100B60000A981044091A0B9143E0084431B22AB2A2
:100B7000914219DA32B2214600F030FC0A9936B2BD
:100B80007118ABEB0606B8F1000F0A910D9603DC65
:100B90009DF84800020704D5079847540B99491C53
:100BA0000B91CDF8388024E0214600F017FC0A981C
:100BB000761B5844B8F1000F0A9003DC9DF84810EA
:100BC0000A0703D5411C0A9107990F5430B280459A
:100BD00007980A9BB8BF464632B204EB0B01184493
:100BE00000F0FCFB0A9836B230180A90A8EB060019
:100BF0000D909DF8480000F0140010287FF4AFAB72
:100C0000099A0A990D988A180B9982180E988A18D1
:100C1000821811988242BFF6A2AB821A17E49DF89F
:100C20004A00622808D068280ED06A2814D06C28A0
:100C30001FD0712810D01CE0D9F8001051F8040B17
:100C4000C9F80010C0B21AE0D9F8001051F8040B2E
:100C5000C9F8001080B212E0D9F80020D21D22F0AD
:100C60000702C9F80020D2E900010832C9F80020C3
:100C700006E0D9F8001051F8040BC9F80010002163
:100C8000CDE904019DF8480001075AD5DDE90423A8
:100C9000002B08BF002A54D04BF02000782850D1F8
:100CA00009981FA930220A54401C431C099301F8DB
:100CB00000B046E09DF84A00622808D068280ED0AF
:100CC0006A2814D06C281FD0712810D01CE0D9F8E5
:100CD000001051F8040BC9F8001040B21AE0D9F81E
:100CE000001051F8040BC9F8001000B212E0D9F856
:100CF0000020D21D22F00702C9F80020D2E900012D
:100D00000832C9F8002006E0D9F8001051F8040BA9
:100D1000C9F80010C117CDE90401002902D50998CE
:100D20002D210AE0BDF84800810702D509982B2142
:100D300003E0C00705D5099820211FAA1154401CC3
:100D400009901FA809990144079104A8594600F089
:100D500056F9FFF704BB9DF84A006C280BD001211F
:100D60000991D9F8000050F8041BC9F800008DF86B
:100D70007C10FFF7F4BAD9F8000050F8041BC9F84A
:100D8000000015914FF0FF3210920021169115AA24
:100D9000FFF709BB25210122BBF1000F8DF87C1064
:100DA00009923FF4DCAA8DF87DB00221FFF7AABAC0
:100DB000CBCCCC0C686A6C747A4C00007072696E93
:100DC00074665F733A2062616420256C73206172DF
:100DD00067756D656E7400007072696E74665F731E
:100DE0003A2062616420257320617267756D656EBB
:100DF0007400000000000000000000007072696EC6
:100E000074665F733A20256E20646973616C6C6F41
:100E1000776564007072696E74663A20626164205E
:100E2000256E20617267756D656E740033B0BDE824
:100E3000F08F2DE9FC410F46064690467A6B7869A3
:100E4000396ABC6A121AB869521A796A121AF869B0
:100E5000521A121A97F83800141B41070FD4202099
:100E6000002C8DF800000ADD254601236A4639462C
:100E7000304600F07DF900285DD16D1EF5D17B690B
:100E800042463946304600F073F9002853D13020ED
:100E90008DF800003D6A002D09DD01236A463946C0
:100EA000304600F065F9002845D16D1EF5D1BB69CB
:100EB000FA683946304600F05BF900283BD1302013
:100EC0008DF800007D6A002D08DD01236A46394651
:100ED000304600F04DF970BB6D1EF6D1F868B96967
:100EE000FB6942183946304600F042F918BB302001
:100EF0008DF80000BD6A002D08DD01236A463946E1
:100F0000304600F035F9B0B96D1EF6D197F83800CB
:100F100041070DD52020002C8DF8000008DD0123AD
:100F20006A463946304600F023F920B9641EF6D1EE
:100F30000020BDE8F6814FF0FF30BDE8F6812DE9D5
:100F4000F8470D46A3B02F6B002F8246904648BF4E
:100F50006FF0004700F01FFE696B401801AA0021E6
:100F6000C2E90011812828BF4FF0FF3044D28946E2
:100F70001EE0A74230DB6869201881280BD30021CE
:100F8000696303AA29465046FFF753FF5FEA000949
:100F900022D40020686103AB6E6922466946981925
:100FA00000F01CFAA6196E6158F8040BA0B13F1BA3
:100FB000002F11DDD8F8001001AA684600F091F961
:100FC0000446002C05D4D8F800000028D1D1641EB6
:100FD000CFD54FF0FF390EE0B9F1000F504604D1E4
:100FE00003AA2946FFF725FF8146B9F1000F02D178
:100FF000002068616863484624B0BDE8F0872DE9A9
:10100000FC4307466F293E6908BF082405D041F01C
:101010002000782814BF0A2410243C25D7E9002397
:10102000642918BF69299046994605D1002B03D53C
:10103000D8F1000869EB4909B9F1000F08BFB8F110
:10104000000F0CD1386B50B9082C39D197F8380003
:10105000010735D530203B2586F83B0030E08DF880
:101060000010404649462246E31700F099FD303211
:10107000D0B26D1E3A28019504DB9DF80000A0F166
:1010800051018A187255404649462246E31700F03E
:1010900087FD80465FEA010908BFB8F1000F03D061
:1010A000F86871198842DCD3082C09D197F8380008
:1010B000010705D5705D302802D06D1E30207055B7
:1010C000C5F13C02BA617119F960386B824208DAE5
:1010D000821A3A624FF6EF70398F01403987BDE8C6
:1010E000F38300280ED597F8380000F0140010287C
:1010F00008D17B6B7969386A5B1A1B1A9A1A002A25
:10110000C8BF3A62BDE8F3832DE9D04306460F46D7
:1011100014464FF00008DFF8549012E0E00707D5BE
:1011200042464B463046394600F064FC06460F46C0
:101130004046494642464B4600F05CFC64108046FF
:101140008946002CEAD130463946BDE8D0830000FC
:1011500002FCFFFFFFFF0F800000E03F0000F07F78
:10116000A08601000000F03F84D797410000244092
:10117000F8B505460E4617461C4600205CB117F828
:10118000011BB068A847B06030B1F06A401CF06243
:101190000020641EF3D1F2BD4FF0FF30F2BD00001D
:1011A0006E616E004E414E00696E6600494E46000B
:1011B000300030B4002513E050F8042BD30744BFAF
:1011C000A9F101039A18091F042942F8045BFAD215
:1011D00013468C0744BF15809B1CC90748BF1D7070
:1011E00050F8041B0029E7D130BC7047613807E094
:1011F00005E0A0F161011A2901D2012070474138B0
:101200001A288041C00F7047A0F10901052901D3B8
:10121000202801D10120704700207047A0F1410132
:101220001A2938BF203070473048704770B453686F
:10123000D41801E05B1C491E042B08DA00291FBFEB
:10124000057804F8015B10F8016B002EF2D15360B1
:1012500070BC704738B514461D4661B1FFF7E6FF14
:1012600061686A6B204690476FF00102811A02D0D4
:10127000491E01D001E024E026E00021616032BD7A
:1012800038B50446084611001D4615D02A46FFF71A
:10129000CDFF6968049B1CB95A6B2846904704E04F
:1012A0000A469B6B2946204698476FF00102811A37
:1012B00002D0491E01D001E003E005E00021696091
:1012C00032BD6FF0010032BD4FF0FF3032BDDA6B3E
:1012D0001047064BBEE71CB5044C0094FFF7D0FF47
:1012E00016BD024BF3E7024870470000C000002023
:1012F00088000020C9B202788A421AB11CBF10F8D7
:10130000012FF9E718BF00207047B1F5807F02D3A5
:101310004FF0FF3070470170012070470A7802607B
:10132000087800E00078401E8041C043C00F70473D
:1013300080B500B906A005490B681BB12222002127
:10134000984701E000F044FD222002BD200C00205F
:10135000636F6E73747261696E742068616E646C21
:1013600065723A20626164206D6573736167650020
:1013700000F1010310F8011B11B110F8011BFBE78C
:10138000C01A7047C9B2830706D0521E22D310F884
:10139000013B9942F7D11FE0083A13D302F104024E
:1013A00041EA012141EA014150F8043B121F21BFEB
:1013B0004B40A3F1013C2CEA030C1CF0803FF3D01E
:1013C000C9B2001F083210F8013B521E28BF91EA33
:1013D000030FF8D818BF0120401E70474AB1000023
:1013E00011F8013B521E00F8013B1CBF11F8013BF4
:1013F000F8E7704710B5144600F002F8226010BDFF
:10140000C1F30A5343B14A0012F5001F28D2A3F2D8
:10141000FE32A1EB0251704750EA410C20D001F09E
:10142000004C31EA0C01B1FA81F204BFB0FA80F34A
:10143000D2180B3AB2F120032CBF00FA03F191400D
:1014400041EA0C013EBFC2F1200C20FA0CF3194313
:101450009040524240F2FD33D21A01EB03517047E3
:10146000002270474FF4001C1CEB410F94BF1CEB93
:10147000430F09E041EA030C50EA4C0C52EA0C0C11
:1014800003D2994208BF9042704714BF8B428242F8
:10149000704703681AB95A1E0260084670471978E7
:1014A00011B94FF0FF307047591C01601878704730
:1014B0004FF4001C1CEB410F94BF1CEB430F09E0E1
:1014C00041EA030C50EA4C0C52EA0C0C03D28B425A
:1014D00008BF8242704714BF994290427047026829
:1014E000531C036011707047124254D440F2FF7CC9
:1014F0001CEA11530FD0634531D09B1863453CBFA4
:1015000001EB0251704701F0004141EA0C5100200B
:10151000AFF30080704750EA410320D001F0004C47
:1015200091EA0C011CD0B1FA81F30B3B9A420DD920
:10153000D21A994051EA0C01C3F1200C20FA0CFC9C
:1015400061449840531C40F2FF7CD7E7914041EA48
:101550000C01C2F1200C20FA0CF3194390407047A3
:10156000B0FA80F31533202BE0D3202AEED3203AB3
:10157000203B9A4209D9D21A00FA03F141EA0C0140
:101580000020531C40F2FF7CB8E700FA02F141EA68
:101590000C0100207047524240F2FF7C1CEA1153BC
:1015A0000DD06345DBD0B2EB030C3CBFA1EB025185
:1015B00070470CF1010221EA035141F4801150EA15
:1015C000410CCCD001F0004C352A27DC30B481EA44
:1015D0000C01B2F1200309DAC2F12003044601FA3A
:1015E00003F5D0402843D1409C400CE0C3F12002D9
:1015F000450020FA03F418BF44F0010421FA03F077
:1016000091400C43002174F1004550F1000051EB72
:101610000C01244230BC7FF47BAF70476146002050
:1016200076E72E00C1F30A5340F2FE329B1A14DD16
:10163000D3F120034FEAE17208DDC90241EA5051BB
:1016400041F00040D84080185040704703F2E1302C
:1016500010B1D24382F00040704700207047430031
:10166000C11768B14840401AB0FA80F29040D21CCD
:10167000C907C2F5846241EA025202EBD02140055B
:101680007047000070B44FF0004591EA030F40F13D
:10169000AB836B40841A71EB030603D2001BB1418C
:1016A000121973414FF4001C1CEB410F34BF7CEB4B
:1016B000430442E00C0DA4EB1356352E4FDC45EAF3
:1016C000C323DB0A45EAC121C912B6F120050DDDAD
:1016D00063FA05F6EB4086EA0305124218BF45F0AF
:1016E0000105C01851F100010CD213E062FA06F5B1
:1016F000F2405540F3415A40B340F3405A408018FD
:10170000594107D349085FEA30005FEA350528BF31
:1017100045F0010501F58011420875F1004250F1D4
:10172000000041EB04514E0016F5001F70BC38BF9D
:1017300070470020090D090570471CEB410F10D2BE
:1017400052EA43060BD0BCEB410F05D80C0DAB435E
:10175000661E342EB6DD02E0AB438018594170BCE2
:10176000704770BC70470000F0B540F2FF7581EA29
:10177000030C0CF0004C15EA11541DBF15EA135769
:10178000AC42AF42E5E0BC41C1F31301C3F3130324
:10179000801A994143F4801304D2641E40004941E9
:1017A00080185941C90241EA5051B1FBF3F603FBDD
:1017B0001611A2FB0675D7EBC020A94102D2761EF6
:1017C00080185941C90241EA5051B1FBF3FE03FBB5
:1017D0001E11A2FB0E75D7EBC020A94103D2AEF1BA
:1017E000010E80185941890241EA9051760546EA76
:1017F0008E2EB1FBF3F603FB1611A2FB0675D7EB99
:101800008020A94102D2761E80185941C90241EABE
:1018100050514EEA060EB1FBF3F603FB1611A2FB84
:101820000675D7EBC020A94102D2761E8018594117
:10183000C90241EA5051B1FBF3F703FB1711A2FBB8
:101840000735D3EBC020A94167F100070CBF004268
:1018500047F0010766F3D5274FEA1E31B80814F5A3
:10186000806412DDBD0775F1004250EB0E5051EB64
:10187000045111F5801F5CBF41EA0C01F0BD4CF032
:101880007F6141F0E0410020F0BDBD076D0840EAF6
:101890000E5041F48011D4F10104B4F120060ADAAB
:1018A000C4F120060200E04001FA06F3E1401843CB
:1018B000B24015430EE0342C13DCC6F1200445EA97
:1018C00040056D0820FA06F2154321FA06F0A14002
:1018D0000D43002175F1004250F1000051EB0C0165
:1018E000F0BD00205FEA0C01F0BDCFB992185B415A
:1018F000B3FA83F704BFB2FA82F6BF190B3FB7F110
:1019000020062FBF02FA06F3BB40C7F1200622FAD9
:1019100006F638BF3343BA401CB1E419641E33E7FE
:101920007F4231F00041B1FA81F404BFB0FA80F691
:10193000A4190B3CB4F120062FBF00FA06F1A14018
:10194000C4F1200620FA06F638BF3143A0403C1B04
:101950001AE7AC421ABF05EA1357AF4212E050EA49
:1019600041061CBF52EA4306BFE750EA4107304632
:1019700061461CBF41EA0551F0BD52EA430C08BF65
:10198000C143F0BD00204FF4001616EB410F98BF85
:1019900016EB430F08BF16EB410F24BFC14305E010
:1019A00016EB430F0CBF61464CEA0551F0BD000039
:1019B000400D491840EA81200CD2490DA1F5806103
:1019C000491C40F0004005DBD1F11F0154BFC84065
:1019D000C017704700207047014648B1B0FA80F147
:1019E0008840C91CC1F58461090501EBD02140057F
:1019F00070470000B0B581EA030C0CF0004C40F2D7
:101A0000FF7515EA11541DBF15EA1357AC42AF42DA
:101A100039E0E41923EA455343F48013C90241F045
:101A2000004141EA505EC7021100A7FB02020028F4
:101A30004FF00000EEFB01204FF00001E3FB072117
:101A400018BF42F00102401800214941E3FB0E019A
:101A5000A4F580640F0302D252004041494154F181
:101A600001046CDD470872F1004250F1000051EBB7
:101A70000451A1F580115CBF41EA0C01B0BD4CEAF4
:101A800005510020B0BD05EA1357AC4214BFAF4268
:101A900041E050EA410E1CBF52EA430E02E06146AB
:101AA0000020B0BD24423C441BD15FEA070EF6D0B3
:101AB000090302BF01460020AEF1140EB1FA81F70E
:101AC000AEEB070401FA07FE0C37C7F1200100FA5C
:101AD00007F7C8404EEA000E23EA455343F480134B
:101AE000A2E733F00043B3FA83F704BFB2FA82FEF1
:101AF00077440B3FE41BB7F1200E2FBF02FA0EF321
:101B0000BB40C7F1200E22FA0EFE38BF43EA0E0397
:101B1000BA40641C82E750EA410E14BF52EA430EF9
:101B20006FF000014FF4001717EB430F8ABF1946FF
:101B300017EB410FB5E74CEA05510020B0BDD4F1D9
:101B40000104B4F120070FDAC4F12007520828BFBE
:101B500042F0010210FA07F501FA07F7E1BF2A4344
:101B6000E0403843E1400FE0352C98DCC7F1200419
:101B700052EA400220FA07F218BF42F0010231FA9D
:101B800007F0A1400A43002172F1004250F1000029
:101B900051EB0C01B0BD80B5FFF746FB006C02BDF8
:101BA000BBBBE1B1B2F5803F80F07E80022A1ED936
:101BB0008C46B1FBF2F102FB11C31B0443EA104354
:101BC000B3FBF2FC02FB1C3380B240EA0343B3FBDD
:101BD000F2F002FB103240EA0C4000237047022A68
:101BE00005D98446B0FBF2F002FB10C270474AB13F
:101BF00005D100F0010249085FEA30007047002279
:101C00000023704700F0A6B90B000200002100205D
:101C10007047904271EB030CF6D3B3F5803F2FD29F
:101C2000F0B5B3FA83F7B1FA81F4A7F10F0E3D1BBB
:101C30005340CEF1200602FA0EF2F3415340B5F1C3
:101C40000F0746D80F3C2C444140C4F12006A04069
:101C5000F1414140B1FBF3F603FB1611A2FB06452F
:101C6000001BA94102D2761E8018594180EA010268
:101C700021FA0EF362FA0EF200215A403046F0BD0E
:101C800030B4B1FBF3FC03FB1C11A2FB0C45001BA1
:101C9000A94103D2ACF1010C8018594130BC024675
:101CA0000B46604600217047B2F1807F65D3F0B5E6
:101CB000B2FA82F7B1FA81F4C7F10F063D1B22FA9E
:101CC00006F307F1110EF24120355A40B5F10F0726
:101CD000B8D94140C4F12006A040F1414140B1FBD8
:101CE000F3FC03FB1C11A2FB0C45001BA94103D212
:101CF000BCF1010C801859410F2F12D30F3FC903BB
:101D000041EA5041B1FBF3F603FB1611A2FB064575
:101D1000D4EBC030A94102D2761E8018594146EA60
:101D2000CC3C07B34140C7F12006B840F1414140E7
:101D3000B1FBF3F603FB1611A2FB0645001BA941FC
:101D400002D2761E8018594180EA010221FA0EF370
:101D5000C7F1200462FA0EF20CFA07F05A402CFA8E
:101D600004F13043F0BD80EA010221FA0EF30021B4
:101D700062FA0EF260465A40F0BD8C46B1FBF2F1B9
:101D800002FB11C31B0243EA1063B3FBF2FC02FB2C
:101D90001C331B024CEA002043EA1063B3FBF2FC45
:101DA00002FB1C331B024CEA002043EA1063B3FB26
:101DB000F2FC02FB1C331B024CEA002043EA1063D6
:101DC000B3FBF2FC02FB1C324CEA002000237047FC
:101DD000012000F0C1B8000070B44FF0004591EA56
:101DE000030F7FF557AC6B40841A71EB030604D2E6
:101DF0006E40001BB141121973414FF4001C1CEBE3
:101E0000410F34BF7CEB430683E00C0DA4EB13566B
:101E1000362E00F37C80012E45EAC32341DC43EAE1
:101E2000525312BFD20292025B08240545EAC12137
:101E300041EA5051D2EBC020994125D407D1B0FAE4
:101E400080F610FA06F162D00020203608E0B1FAE0
:101E500081F6B140C6F1200220FA02F21143B040EF
:101E60004FEAF474B4EB465434F001064FEA7404BC
:101E70000AD8D6F50016760D04F00044F04061FA59
:101E800006F25040F1404840C00A40EA415021F07B
:101E9000004128BF5FEA500550F1000044EBD1211A
:101EA00035E0DB0A45EAC121C90AB6F120050EDD9D
:101EB00042EA0242120CC5F1200603FA06F6EB4094
:101EC00042EA06056D42984161F100010DE062FAB7
:101ED00006F5F240554063FA06FC82EA0C02F34034
:101EE0005A406D42904161EB030111F4801F05D10E
:101EF000641E620502D06D004041494121F4801109
:101F0000430875F1004350F1000041EB045170BCEF
:101F100070471CEB410F15D223F0004352EA4306F1
:101F20000BD04FEA4C0CBCEB410F04D80C0D661ED5
:101F3000342EB7DDEBE7801A994150EA410608BF1D
:101F40000021E4E708BF1CEB430F28BF6FF000013E
:101F5000DDE700007047000080B5AFF30080024A63
:101F600011001820ABBEFBE726000200034608461E
:101F70000122C168491CC16000210068184703465E
:101F80000846C1680269491C521E002A0261C160EC
:101F900003D400680122002118474FF0FF3070473A
:101FA000034608461146C268521E11F1010FC26075
:101FB00002D0006800221847704700002DE9F84F52
:101FC0009CB008AE0027C6E9007700914FF0FF34BF
:101FD0001B68019302920DF14702269B8DF81F307A
:101FE000A04603971B92814602E10A98029D25288C
:101FF0000CBF771E37467F1E15D40398401C0390F4
:10200000012200980021C84715F8011B8842F2D030
:10201000024669464846FFF7C3FF0020404580F26C
:102020008B8500F088BD02980A99304425290290DA
:1020300008D100782A280ED10298401C029010F88E
:10204000011D09E00A98002840F0D280404580F246
:10205000738500F070BD00218DF81C1000210591E2
:10206000DFF8DC3A0AE00598984205DA00EB8006D2
:1020700001EB460130390591501C0290029A11780B
:10208000A1F130000A28EED306940FF6B82011789B
:10209000FFF730F920B10298401C0290401E0078F2
:1020A0008DF81D009DF81D00682805D1029908785B
:1020B00068280CD1622206E06C2802BF02990878D9
:1020C0006C2804D17122491C8DF81D2002910298C0
:1020D00001780FF67820FFF70DF980B90398401CBE
:1020E0000390012200980021C847064600F0D4FE64
:1020F0000028F3D1324669464846FFF751FF0020D9
:102100008DF81E0002980178253930D01C3900F076
:10211000C980091F022940F2C5800E393BD0491FF2
:1021200000F06B83C91E1FD0891F00F0BB80891E81
:1021300000F0ED84491E00F06083491E022940F240
:10214000B180091F00F05983491F2AD0491E012977
:1021500040F25383091F21D0891E00F04E83C91E0F
:1021600000F04B8300F0E2BC224600F0D1BC0398A3
:10217000401C039001220098C8470646252E2AD00D
:10218000324669464846FFF70BFF16F1010F40F053
:10219000CD8400F01DBC6C208DF81D00012200F0E4
:1021A000B7BC9DF81C00B0B99DF81D0062286DD029
:1021B000682851D06A285BD06C2801D0712857D08C
:1021C000019951F8040B019118B90FF6881000F02D
:1021D0009ABC03990160B8F1000F9DF81E0048BF3A
:1021E0004FF0000808B108F1010802994A1C029258
:1021F00000210A9108AB029922460AA8FFF76BF862
:102200000646002E05DC029801784E1EB641F643C4
:10221000F60F0A9800F04AFE00F03EFE00283FF458
:10222000E4AE0398401C0390012200980021C847A7
:10223000074600F031FE0028F3D13A466946484689
:10224000FFF7AEFE17F1010F7FF4EDAE5FEA080075
:1022500040F1728400F068BC019951F8040B0191BF
:1022600018B90FF6F00000F04EBC03990180B2E7F8
:10227000019951F8040B019118B90FF6D80000F03C
:1022800042BC039AD317C0E90023A4E7019951F88F
:10229000040B019118B90FF6BC0000F034BC03998F
:1022A000017098E705980028D8BF6FF000400490AF
:1022B00069464846FFF763FE00262B2818BF2D28E5
:1022C0000DF1300A07D18DF8300069464846FFF716
:1022D00056FE0DF1310A0A270025302818D169462B
:1022E0004846FFF74CFE40F02001C9B2782902D0E1
:1022F000012529460BE130208AF800008AF80110F8
:1023000048466946FFF73BFE0AF1020A1027F0E74C
:1023100040F02001CAB26E2A4CD16E200AF8010B9F
:1023200069464846FFF72BFE83464BF02000002706
:10233000C0B2612840F09A8161210AF8011B484629
:102340006946FFF71CFE83464BF02000C0B26E28A2
:1023500040F08C8169464846FFF711FE282806D0D8
:10236000024669464846FFF71BFE6E2066E0049869
:10237000401E049005D469464846FFF7F7FD8346A2
:1023800003E00399491C0391A346CDF828B05846B1
:1023900000F0A6FD0028EAD1ABF130000A28E6D310
:1023A0000A985F28E3D08346BBF1290F40F05E8195
:1023B0006E2043E0C9B2692940F0B08069200AF874
:1023C000010B69464846FFF7DAFD83464BF02000D3
:1023D0000027C0B26E2840F049816E210AF8011B27
:1023E00003980499401C491E00290491039005D4C8
:1023F000009801220021C847834600E0A3464BF025
:102400002000C0B2662840F0318103980499401C36
:10241000491E00290491039004D400980122002150
:10242000C84700E0204640F02001C9B2692908D021
:10243000024669464846FFF7B3FD66200AF8010BDD
:102440001AE103980499401C491E00290491039045
:1024500005D4009801220021C847834600E0A34626
:102460004BF02000C0B26E2840F000810398049920
:10247000401C491E00290491039005D400980122B4
:102480000021C847834600E0A3464BF02000C0B2BD
:10249000692840F0EB8003980499401C491E0029EC
:1024A0000491039005D4009801220021C847834677
:1024B00000E0A3464BF02000C0B2742840F0D68064
:1024C00003980499401C491E00290491039005D4E7
:1024D000009801220021C847834600E0A3464BF044
:1024E0002000C0B2792840F0C18066210AF8011BA3
:1024F000C2E00398401C0390204607E00498401E69
:102500000490F6D469464846FFF730FD0121302893
:10251000F4D00D4611B130210AF8011B834628463C
:1025200000250EE00398401C0390A34608E00498A1
:10253000401E0490F6D469464846FFF717FD8346CF
:1025400001201BF1010F1BD05FFA8BF2612AA8BF9B
:10255000ABF157010ADA412AA8BFABF1370105DA1E
:10256000303A0A2A34BFABF13001FF21C9B2B94277
:1025700006D2242DBABF0AF801BB6D1C761CD6E723
:102580008DF828000B95FEF7AEFE406A01788B456A
:1025900010D10AF801BB03980499401C491E002978
:1025A0000491039005D4009801220021C847834676
:1025B00000E0A3460B98E8B99DF828000FE00398C7
:1025C000401C0390A34609E00498761E401E049028
:1025D000F5D469464846FFF7C9FC83460120BBF1A4
:1025E000300FF1D0002E8DF8280003D530200AF8E6
:1025F000010B761C9DF828000B9D13E00398401CEE
:102600000390A3460DE0242DBCBF0AF801BB6D1C4E
:102610000498401E0490F1D469464846FFF7A6FC92
:10262000834601201BF1010F14D05FFA8BF2612A5F
:10263000A8BFABF157010ADA412AA8BFABF13701B5
:1026400005DA303A0A2A34BFABF13001FF21C9B2B2
:10265000B942D8D3054648B14BF020000A2FC0B28A
:1026600035D1652835D001E083460D465A46694686
:102670004846FFF795FC15B300218AF800109DF835
:102680001C0000287FF4A7AD0A2F0B4674DC3246ED
:102690000CA800F075FD01228DF81E20019A9DF80E
:1026A0001D60131D6C2E40F0938012680193002A68
:1026B00040F08B806248784400F5C37023E20CA898
:1026C000824508BF1BF1010F40F0308280E1702885
:1026D000CCD10AF801BB0498401E049010D4039892
:1026E000401C0390012200980021C8472B2818BFE6
:1026F0002D2811D10AF8010B0498401E049004D52E
:102700000398401C0390204606E00398401C039069
:10271000012200980021C84700210DE00398401CC9
:102720000390204607E00498401E0490F6D46946C2
:102730004846FFF71BFC01213028F4D00A001CBFDB
:1027400030220AF8012B0025A0F130020A2A8BD290
:10275000082DBCBF0AF8010B6D1C0498401E0490A4
:1027600004D50398401C0390204603E06946484680
:10277000FFF7FCFB0121E7E700220CA800F000FDB9
:10278000B2000E4673005B0D02EB030712D0002F60
:1027900010DD40F2FF72974207DBDFF8B47601F0FC
:1027A000004040EA0701002075E76FF31E5646EA35
:1027B000075170E720F0000631F0004708BF002EF7
:1027C0003FF469AFFEF790FE65E7C2E9000102E55C
:1027D0004C2E07D112680193002AF6D1184878448C
:1027E0005E3090E1166801931EB915487844503068
:1027F00089E100F085FD3060EDE405980028CCBF4C
:10280000401EDFF8500600280AAF049012D4039847
:10281000401C0390012200980021C8472B2818BFB4
:102820002D2816D18DF828000DF129070498401E97
:10283000049007D50398401C0390204609E000BF90
:10284000805700000398401C03900122009800214B
:10285000C847029A12780021642A18BF752A0FD03F
:10286000692A08BF00260CD06F2A08BF082608D0A6
:10287000702A1CBF42F02002782A02D1102600E004
:102880000A2630282ED104980125401E0490039872
:1028900005D4401C039001220098C84702E0401C68
:1028A0000390204640F02001C9B2782917D1002EAC
:1028B00018BF102E27D104981026401E04900398AC
:1028C00007D4401C0390012200980021C84700252E
:1028D00019E0401C039025464FF0000A4BE096B9E2
:1028E000082610E0FEB90A261DE00398401C03905C
:1028F000204607E00498401E0490F6D469464846F6
:10290000FFF734FB01253028F4D029460A000AD00D
:10291000302207F8012B06E0401C039001220098AA
:102920000021C847012110F1010F22D0C2B2612A53
:10293000A8BFA0F157030ADA412AA8BFA0F13703C4
:1029400005DA303A0A2A34BFA0F13003FF23DBB2A4
:10295000F2B293420DD21B998F4238BF07F8010B98
:102960000498401E04900398D6D5401C0390012182
:10297000204605468A462A4669464846FFF710FB28
:10298000BAF1000F1DD0002139709DF81C000028FD
:102990007FF421AC02980078642818BF69286BD0B6
:1029A00032460AA800F0B6FD01228DF81E20029AD8
:1029B0001378702B11D1019B53F8042B01934AB962
:1029C0009FE00AA8874208BF15F1010F40F0AE80D2
:1029D0002046ACE01060FFF7FEBB9DF81D20622A88
:1029E0003AD0682A11D06A2A26D06C2A06D0712AD9
:1029F0002AD0742A19D07A2A10D036E0019B53F8D5
:102A0000042B0193002AE5D17BE0019B53F8042BB2
:102A10000193002A75D01080FFF7DDBB019B53F8AE
:102A2000042B0193002AD5D16BE0019B53F8042BB2
:102A30000193002ACED164E0019B53F8042B01934B
:102A4000002A7FF4C2AE5CE0019B53F8042B019393
:102A5000002A7FF4BAAE54E0019B53F8042B019393
:102A6000002A4ED01070FFF7B6BB019B53F8042B21
:102A70000193002AAED144E032460AA800F09EFD40
:102A800001228DF81E209DF81D20622AE4D0682ABC
:102A9000BBD06A2A1ED06C2A06D0712A22D0742A92
:102AA00010D07A2A07D025E0019B53F8042B01931C
:102AB000002A8FD125E0019B53F8042B0193002AB3
:102AC00088D11EE0019B53F8042B0193002A7FF468
:102AD00081AF16E0019B53F8042B0193002A7FF489
:102AE00074AE0EE0019B53F8042B0193002A7FF48F
:102AF0006CAE06E0019B53F8042B0193002A7FF48F
:102B000069AF0FF27430FEF713FC201A04E00022C4
:102B10006946484600F04EF800283FF75CAB26991E
:102B200029B110F1230F02D1204605E00020B8F1B1
:102B3000000F48BF804640461DB0BDE8F08F000042
:102B4000CBCCCC0C686A6C747A4C000063436E5B2F
:102B5000000000007363616E665F733A2062616417
:102B600020256E20617267756D656E74000000002F
:102B7000C9B208E003789942A4BF90F802C08C451E
:102B800013DAC01CD21E032A0AD343782D2BF1D0AE
:102B900010F801CB8C4518BF521EF4D105E0521E2F
:102BA0002AB110F8013B8B42F9D101207047002077
:102BB000704700002DE9F04F8BB00D4600260396BC
:102BC0008146697F019204A86C2901990CBF4FF0DE
:102BD000010BB346C0E90066002924D5A868411C52
:102BE000A960084601785E2903BF401CA86010F860
:102BF000014D0024AF6838785D280CBF781C38463A
:102C00005D21FEF777FB002800F01381C11B0091C6
:102C1000A8600098022806DD821E2D21781CFEF790
:102C2000B1FB00B101266869002805DC0198002885
:102C300014BF6FF0004001202861287FD0B9686878
:102C4000011D00686960BBF1000F07D0029088B9D0
:102C50004FF0FF340648784416301AE05FEA000A65
:102C600008D10348784408304FF0FF34283010E092
:102C70003C520000287FA8B9E87F98B1696851F8F4
:102C8000040B6960B0F1004FC0F007804FF0FF34D3
:102C900071A0FEF74DFB201AD6E0A969884288BFD3
:102CA0000846A86109940A9606974FF0FF38039EDC
:102CB000CDF820B00024DDF808B007E00AF8017B69
:102CC0000120A969A877491EA9610226E868296937
:102CD000401C491E00292961E86024D4286801228B
:102CE0000021C847074617F1010F1ED148462C4660
:102CF000DDF80490089D3A462146FFF751F9B9F1F5
:102D0000000F03D0F0B2022800F08F80F0B202284A
:102D100000F09980F00703D417F1010F40F089808B
:102D20004FF0FF3090E04746E0E70198002803DDD0
:102D3000384600F0B1F810E01FD50A98002809982D
:102D40000ED10028009A0698394604D1FEF71AFBE6
:102D50000028CBD011E0FEF715FB0028C6D10CE00F
:102D60000028009A0698394603D1FFF701FF20B9E1
:102D7000BCE7FFF7FDFE0028B8D1089838B9287FD6
:102D80000028A2D1A869002898D10126AEE703A89F
:102D9000014607900F55641C04AB224602A8FEF7BB
:102DA0009AFA811C02291BD8DFE801F00206140000
:102DB000042C46F0010689D3002C07DD0798641E19
:102DC0002946025D4846FFF7EBF8F5E7F6B286BB09
:102DD000404639E0029919B903A8FEF7C9FA401C28
:102DE00010F1030F08BF0020064608E00798EA68C4
:102DF000641E521E015DEA6000222868C847A64290
:102E0000F4DB287F58B9A86908B901265EE7029863
:102E10004BF8040B0121A869A977401EA86102267E
:102E20006869401E6861002450E7207F58B9A06996
:102E300008B9002008E0002D19BF0020CBF80000E1
:102E400000218AF8001001200BB0BDE8F08F0000CF
:102E50000000F07FFEFFFF7F7363616E665F733A71
:102E6000206261642025632C2025732C206F722042
:102E7000255B2073697A65007363616E665F733AE0
:102E80002062616420696E74656765722061726793
:102E9000756D656E7400000010B50446FEF7C4F948
:102EA00001462046096ABDE81040084718B50446A7
:102EB00014F1010F83B00BD00822002101A800F00B
:102EC00080FB01AA21466846FEF70BFA012803D0D1
:102ED0004FF0FF3004B010BD9DF8000004B010BDED
:102EE00010B50446FEF7A0F9014620460969BDE881
:102EF000104008477CB51D4621F000431446B3F549
:102F0000801F20F0000209D20026002B08BF002AF3
:102F100000960ED06A46FEF76DFA0AE0DFF8B46359
:102F200006EB13520092DFF8B033DFF8B023114004
:102F3000194322462B46FEF75DFD0B465A00009CC6
:102F4000520DA41892B1002C10DD40F2FF72944291
:102F500007DBDFF88C3301F0004040EA030100207A
:102F60007CBD6FF31E5343EA04517CBD20F0000288
:102F700031F000430EBF002A009AFEF7B5FA7CBD7F
:102F80002DE9F84C002A82468B461F4600F0F1805E
:102F90002AF000043BF0004508BF002C00F0E98057
:102FA00048004015401C02D1090300F0E2800020D7
:102FB000002ADFF8301340F1838052426F4D7D4488
:102FC00005F5DD750824164608E0F20744BFD5E98B
:102FD0000023FEF70FFD76080835641E002E18BF8B
:102FE000002CF2D10D462BF000410446B1F5801FB4
:102FF0002AF000000BD20022002904BF0028594605
:1030000000920ED06A465946FEF7F4F909E0B14A3B
:1030100002EB1150B14900900BEA0102AE49504653
:10302000114322462B46FEF79FFB0B465A00009C9D
:10303000520DA4189AB1002C11DD40F2FF72944297
:1030400007DBA74A01F000404FF0000A40EA020BFC
:1030500010E06FF31E5343EA045B82460AE020F05F
:10306000000231F000430EBF002A009AFEF73CFA3E
:1030700082468B462AF000023BF0004308BF002A3C
:1030800061D04FEA4B004015401C0CBF5FEA0B318A
:10309000002E58D050465946934A944BFFF72AFFCA
:1030A00020F0000431F0004508BF002C49D04A0050
:1030B0005215521C01D10B0343D0761EECD140E0D7
:1030C00041DD2E4E7E44B43608241546EA0744BF3F
:1030D000D6E90023FEF78EFC6D100836641E002D25
:1030E00001DD002CF2D102460B4650465946FFF74F
:1030F00001FF82468B462AF000023BF0004308BFE6
:10310000002A2C461FD048004015401C01D109035D
:1031100019D0002C17DD50465946754A754BFFF7FC
:10312000E9FE20F0000231F0004308BF002A08D079
:103130004A005215521C01D10B0302D0641E002C10
:10314000EBDC82468B462AF000023BF0004308BFCE
:10315000002A07D04FEA4B004015401C08BF5FEA29
:103160000B3106D1AFF300801FB1386840F0010089
:10317000386050465946BDE8F48C00BF7C4D0000D5
:103180002DE9F94987B01F001CBF00203860079E59
:103190000C46154607A800F01EFAC21020F00800E1
:1031A00002F001020128059204952FD1022000901F
:1031B00001AB07992246304600F09EFA040002D186
:1031C000002000211DE00298FEF74AFA022C18DBCD
:1031D0000DF10C08661EDFF820B102460B460020F8
:1031E0005946FEF707FC044658F8040B0D46FEF757
:1031F00037FA22462B46FEF7EFFD761E02460B46B7
:10320000EDD1049A019C3B46A2184BE002284CD118
:10321000009001AB07992246304600F049FB0400BC
:1032200002D10020002119E00298FEF719FA022CC1
:1032300014DB0DF10C08661EDFF8C0B000225B46FF
:10324000FEF7D8FB044658F8040B0D46FEF708FAC3
:1032500022462B46FEF7C0FD761EEFD1019B0C46A1
:103260006200520D03EB020511D0002D0FDD40F27C
:10327000FF72954206DB1A4B01F0004040EA030161
:1032800000200DE06FF31E5444EA055108E020F0E1
:10329000000431F000450EBF002C1A46FEF724F959
:1032A000049A3B46FFF76CFE0CE0032802D1002095
:1032B0000B4907E0042807BF4FF0FF306FF00041D3
:1032C00000200021059A0AB181F0004109B0BDE853
:1032D000F089000002FCFFFF0000E03FFFFF0F80CD
:1032E0000000F07F0000F03F436FAC642806C80A7E
:1032F0003CBF737FDD4F157565CDCD410000B041FA
:1033000001F000428B1AA3F16051B1F5801F0ADB76
:10331000B1F17F6F1FD242EAC102C10071F10041D9
:1033200042EB507070470B15C3F10903212B10D2EB
:10333000890241EA905180020128494141F000414F
:1033400021FA03F0C3F12003994071F1004150418B
:103350007047100070476FF0000013EB103F5CBF28
:10336000000E42EAC05070472DE9FC4F85B00C4674
:1033700093460BB100221A600290824601E00AF1E6
:10338000010A9AF80000FFF787FD0028F7D19AF8A4
:1033900000002D2818BF2B2807BF1AF8010B8DF845
:1033A00000002B218DF80010BBF1000F019405D413
:1033B000BBF1010F02D0BBF1250F04DB002C71D053
:1033C000029820606EE0BBF1000F0DDDBBF1100F25
:1033D00004BF9AF80000302802BF9AF8010040F0BC
:1033E0002000782814D10EE09AF80000302818BF89
:1033F0004FF00A0B0CD19AF8010040F02000782819
:1034000004D14FF0100B0AF1020A01E04FF0080B53
:10341000CDF810A001E00AF1010A9AF80000302866
:10342000F9D00948784420300024283000250026AF
:103430000027CDF80CA0A0468DF80100DFF8089019
:10344000F94409F1040918E0144A00009DF801103C
:10345000401A5FFA80F85846A0FB06234FEAEB714A
:1034600000FB073301FB0633344600213D4612EBD7
:10347000080643EB01070AF1010A9AF8000000F080
:103480001BFB01465A4609F12800FDF77BFF002887
:10349000DCD1049951455A4607D1019810B10199E0
:1034A000029808600020002130E0039919F802001A
:1034B000AAEB0101081A00281BD410DC0023B6EB8C
:1034C000080067EB03018F4209D301D8864206D377
:1034D000D317FEF765FBA94208BFA04209D0AFF39E
:1034E0000080069808B1012101604FF0FF36374691
:1034F00006E09DF800002D2802D1764267EB4707D1
:10350000019808B1C0F800A03046394607B0BDE8C0
:10351000F08F000000BF002326E700002DE9F843EC
:103520000D00804691461E4608BF6D46444600E0A9
:10353000641C2078FFF7B0FC0028F9D127782D2FE4
:1035400018BF2B2F05D114F8010FFFF7A5FC50B9B8
:1035500000E02B2733464A4629462046FFF704FF62
:103560002A68944205D1C5F8008000200021BDE8FA
:10357000F4832B2F05D14FF00043994209D2BDE8C7
:10358000F4832D2FFBD1B1F1004F12D301D80128C4
:103590000FD3AFF300800EB1012030602D2F19BF83
:1035A0004FF0FF306FF0004100204FF00041BDE8C8
:1035B000F483404261EB4101BDE8F48300BF002386
:1035C000ACE710B5044610460A460146204600F016
:1035D0007DFA204610BD2DE9F84305460C462E68BD
:1035E000002700E0761C3078FFF756FC0028F9D160
:1035F00030782D280CBF08272B2800D1761C307876
:1036000040F020016E2927D1707840F02000612819
:1036100002BFB07840F020006E2802D02E6800274C
:1036200046E0F61CB046042798F8000028283FD151
:1036300018F8019F4846FFF753FC0028F8D1A9F17C
:1036400030000A28F4D398F800005F28F0D0292829
:103650002ED108F101062BE069292CD1707840F0B9
:1036600020006E2802BFB07840F02000662802D00B
:103670002E6800271CE016F8030F40F02000692890
:1036800002BF707840F020006E2847F003070FD18A
:10369000B07840F02000692802BFF07840F02000A8
:1036A000742805D1307940F02000792808BF761DB4
:1036B000F4B126601CE0302802BF707840F0200092
:1036C000782813D1B01C01782E2908BF401C00783F
:1036D000A0F16101062921BFA0F14102062A30387C
:1036E0000A2803D2B61C47F0020701E047F00107A1
:1036F0002E603846BDE8F2832DE9F14F8CB04FF0D3
:103700000008169DC34605EBC5052D2DC3F800B076
:103710009246C8BF2D25C3F804B0D94602E0491C23
:103720004FF0010908783028F9D0002411E018681A
:10373000401C18600A78302A08D04FF0010805E0D4
:10374000AC42F4DA30380DF80400641C491C4FF028
:1037500001090878A0F130020A2AF1D30F461E466B
:10376000FDF7C1FD406A39780278914208BF7F1C9D
:10377000002C48460ED1397830290BD13068401ED4
:1037800030607F1C0120F6E7302918BF4FF0010898
:103790007F1C01203978A1F130020A2A0AD2AC42FA
:1037A000F2DAA1F130000DF80400641C3268521EF8
:1037B0003260EDE7B8F1000F0DD00DF1FF314A5D39
:1037C000521C4A5507E00DF1FF32115D49B93268CC
:1037D000521C3260641E002CF5DC04BF8DF800B072
:1037E0000124002857D04FF0090994FBF9F9C4F1DE
:1037F000090309EBC9010B44092193FBF1F10022F4
:1038000001EBC101591A1AD04FF0010B17E056F81D
:103810002B1001EB810105EB410146F82B100CE068
:10382000092193FBF1F101EBC1011DF80250591A76
:10383000EDD10BF1010B46F82B505B1C521CA24240
:10384000EEDB397841F02001652924D1394617F89B
:10385000012F164D2B2A16BF2D2A17F8014B2B24AA
:103860000022002308E0AB4204DA03EB83020CEBF6
:103870004203303B7F1C012297F800C0ACF1300EB0
:10388000BEF10A0FEFD32D2C346808BF5B421B1921
:10389000336002B90F46BAF1000F03D000B90C9F94
:1038A000CAF8007058460DB0BDE8F08F00E1F5058C
:1038B0002DE9F14F8CB04FF0000ADDF85880C3F8C5
:1038C00000A0C8EBC808B8F1230FC8BF4FF0230809
:1038D0009146C3F804A0002701E0491C012708789D
:1038E0003028FAD068A201925FF000046CA2009226
:1038F0000DF1080B0D461E460EE03068401C30608E
:1039000008E0A045F9DB019A0099801A085C0BF8E1
:103910000400641C6D1C012795F800105AA01622A3
:10392000FDF730FD0028ECD1FDF7DDFC406A297879
:103930000278914208BF6D1CB4B92878302813D1A1
:103940003168491E31606D1C0127F6E7A04509DB8F
:10395000019A0099801A085C0BF80400641C316815
:10396000491E31606D1C01272978162246A0FDF7FB
:1039700009FD0028EAD1A04517DA1BF8081007292D
:1039800006DD0DF1070111F80820521C01F808208E
:1039900044463268521C326007E00DF10702115DA7
:1039A00049B93268521C3260641E002CF5DC04BF39
:1039B0008DF808A0012431688900002F316055D0AE
:1039C0004FF0070C94FBFCFCC4F10703CCEBCC0CD0
:1039D0006344072193FBF1F10022C1EBC101591AA5
:1039E00018D04FF0010A15E056F82A100CEB011020
:1039F00046F82A000CE0072193FBF1F1C1EBC1016D
:103A00001BF802C0591AEFD10AF1010A46F82AC080
:103A10005B1C521CA242EEDB297841F02001702988
:103A200024D1294615F8012F16482B2A16BF2D2A16
:103A300015F8014B2B240022002308E0834204DA0E
:103A400003EB83020CEB4203303B6D1C012295F823
:103A500000C0ACF1300EBEF10A0FEFD32D2C34684C
:103A600008BF5B421B19336002B90D46B9F1000F64
:103A700003D007B90C9DC9F8005050460DB0BDE801
:103A8000F08F000000E1F505303132333435363740
:103A900038396162636465664142434445460000CB
:103AA000000102030405060708090A0B0C0D0E0F9E
:103AB0000A0B0C0D0E0F000010B50446FDF7B4FB09
:103AC00001462046896ABDE81040084762F30F228C
:103AD00062F31F42401810F0030308D0C91A1FD325
:103AE000DB0748BF00F8012D28BF20F8022D130086
:103AF00030B414461546103928BF20E93C00FAD8E6
:103B0000490728BF20E90C0048BF40F8042D890070
:103B100028BF20F8022D48BF00F8012D30BC7047A7
:103B2000C91818BF00F8012DCB0728BF00F8012DD8
:103B30007047000038B5040001D1012032BD00F00B
:103B400021F808B900F022F800F012F800F023F88C
:103B5000FFE7416100F001F832BD2068C16841F41F
:103B60000051C1600020686020216970A970704711
:103B7000242068702068C16821F40051C16020468B
:103B800000F02FBA04F138056878704700212970D9
:103B9000204600F0BFBA2068016921F4904101611C
:103BA0002068416921F02A01704770B5044604F18C
:103BB000380513466878202831D109B1180001D1A1
:103BC000012070BD2878012829D0012028702162A9
:103BD000A384E3840020686021226A700FF27920B8
:103BE000226B9062226B0FF29D20D062226B0FF24B
:103BF000DD2010630020266B70632068021D206B9F
:103C000000F07FFC21686FF04000086000222A70FD
:103C10002068416941F080014161002070BD0220AF
:103C200070BD7CB5044604F138051346A8782028F9
:103C30003ED109B1180001D1012076BD28780128B4
:103C400036D001202870A162A38500226A6022205C
:103C5000A8700026606B0FF235228262606B0FF253
:103C60006522C262606B0FF2652202630A46606BD6
:103C700046632668606B311D00F043FC0020009015
:103C800021680A68009200224B68009300982A700D
:103C9000CB6843F48073CB602068416941F0010137
:103CA00041612068416941F040014161002076BDD9
:103CB000022076BD10B500F018F804D500F00FF81A
:103CC00008B100F007F80021E185202084F83A00CF
:103CD000002010BD00214163606B00F04CBC4169C5
:103CE00021F040014161606B704704462068C16863
:103CF00021F49071C160206841694908490041611F
:103D0000206841694A06704738B504462568296825
:103D1000EA686B6911F00F0007D188065DD593063C
:103D20005BD52046BDE8324012E1D80702D412F438
:103D3000907F52D0C80705D5D50503D5E06B40F07C
:103D40000100E063480705D5DD0703D5E06B40F0CF
:103D50000200E063880705D5DD0703D5E06B40F07E
:103D60000400E063080705D5DB0703D5E06B40F0EE
:103D70000800E063E06B00286CD0880604D591064B
:103D800044BF204600F0E4F820684069E16B0A0770
:103D900001D440061BD5204600F0C6F820684169D2
:103DA0004A060FD5FFF79BFF60B10FF299114163EF
:103DB000606B00F0F9FB00284CD0606B416BBDE8F4
:103DC000344008472046BDE8324000F002BD20469E
:103DD00000F0FFFC0020E06331BD08062AD5130681
:103DE00028D594F83900212834D1A068B0F5805F37
:103DF000206A0BD10188C1F308016960206900289D
:103E0000206A0CBF811C411C216203E0411C21621D
:103E100000786860E08C401EE08480B2D0B92068F1
:103E2000C16821F08001C1602068C16841F0400193
:103E3000C16031BD48060DD551060BD5E86820F0AC
:103E40004000E860202184F839102046BDE8324067
:103E500000F0C0BC31BD0000416A006802689306F2
:103E600044BF084600F0B6BC0020C8840868426918
:103E700022F0800242610868C16841F04001C160DF
:103E800070470000406A00F0A6BC0000416A00686C
:103E90000268930613D40020C8850868C26822F41B
:103EA0008072C26008684269520852004261086824
:103EB000426922F040024261202081F83A0008461F
:103EC00000F08ABC406A00F088BC000038B5446A43
:103ED0002068406904F139052978212906D10106B5
:103EE00004D50022E284204600F015F821684869D4
:103EF0006978222906D1400604D50021E1852046B3
:103F000000F012F8E06B40F01000E0632046BDE8DE
:103F1000324000F05EBC0168CA6822F0C002CA608C
:103F2000202180F8391070470168CA6822F4907225
:103F3000CA6001684A69520852004A61202180F82B
:103F40003A107047406A0021C185C18400F041BC2D
:103F500080B590F83A10222941D18168B1F5805F8F
:103F600012D101690368826A0029596805D1C1F339
:103F700008011180826A911C04E001F0FF011180A8
:103F8000826A511C81620FE001690029816A04D1B3
:103F90004A1C826203685A6805E04A1C8262036810
:103FA0005A6802F07F020A70C18D491EC18589B22C
:103FB00099B90168CA6822F02002CA600168CA681B
:103FC00022F48072CA6001684A69520852004A614C
:103FD000202180F83A1000F0FFFB002002BD0220F3
:103FE00002BD2DE9F0470446642522681169E068A6
:103FF00021F44051014311611926D3683249A06868
:104000000B402169034360690B430343D36051694B
:10401000A06921F4407101432C48516182420ED1C4
:1040200000F017FE074600F014FE804600F011FE77
:10403000814600F00EFE824600F00BFE0DE000F01F
:1040400000FE074600F0FDFD804600F0FAFD8146C7
:1040500000F0F7FD824600F0F4FD616889007743C7
:10406000B7FBF1F36422B3FBF2F206FB08F3B3FBF8
:10407000F1F706FB09F3B3FBF1FCAE46BCFBFEFE19
:1040800005FB1E773F0132376423B7FBF3F303F0E0
:10409000F00303EB021306FB0AF74643B7FBF1F20A
:1040A000B6FBF1F06421B0FBF1F105FB11252D0108
:1040B00032356420B5FBF0F0216800F00F00C31822
:1040C0008B60BDE8F0870000F3E9FFFF0038014096
:1040D00080B5A148A14900F00BF800B116E001BD80
:1040E00080B59F489F4900F003F800B10EE001BD84
:1040F00001604FF4165200230C2142608360C360BC
:10410000036141618361C361FFF714BDBDE80140F4
:1041100000F006BE2DE9F84185B00446684600214E
:1041200000220023002580E82E0021688B4A8E4D56
:104130008E4FDFF83C828F4891424FF480564ED12B
:10414000016841F4804101600323026802F4804267
:10415000049200F0AFF84FF4007100F0B1F803934F
:104160006946404600F0DEFD00214FF48062019177
:10417000029100926946404600F0D4FD05F114001A
:10418000386000218020F8607960B9603961796118
:10419000B961FE61384600F087F908B100F0C0FD52
:1041A000102000216763B864F96480203865796560
:1041B000B965F9657C627D643E6607F1440000F0F4
:1041C00073F908B100F0ACFD07F144002063BC6650
:1041D00001220221252000F0B3FE252065E0614A7E
:1041E000914264D1416841F400314160416801F479
:1041F0000031049100F05EF8042100F061F8032121
:1042000003914046694600F08DFD08200021009092
:10421000019102914046694600F084FD07F188084B
:1042200005F13C00C8F80000102180200022C8F8E9
:104230000C00C8F80410C8F80820C8F81020C8F806
:104240001420C8F81820C8F81C60404600F02CF96B
:1042500008B100F065FD05F128000021C4F83080A8
:10426000C8F84400C8F848100020C8F84C00802165
:10427000C8F85400C8F85800C8F85C00C8F85010D6
:1042800007F1CC05C8F82440C8F86060284600F063
:104290000BF908B100F044FD6563C8F868400222DC
:1042A0000221262000F04CFE262000F066FE06B01B
:1042B000BDE8F0810499026842F004020260704790
:1042C000006800F00400049002220498009101921A
:1042D00070471CB504462068C36843F40053C360AC
:1042E0002046FFF79EFC0023009321680A68009295
:1042F0004B6800930098CA6842F01002CA6013BD70
:104300000EB430B5010002D0012804D020E0124CD8
:104310001248194D02E0124C1248184D20600C2131
:104320000398606000220698A0600498E0600598F9
:1043300020616161A261E2612046FFF7FBFB08B1E9
:1043400000F0EEFC69684FF480722046FFF7C1FF71
:1043500030BC5DF810FB0000F40A0020003801407A
:10436000340B002000440040440002400C050020B3
:1043700000080140181002400C0000201C00002022
:104380007FB56B46002200240025002683E87400D8
:10439000C0F30B04072C24D8DFE804F00424282BF6
:1043A0002F3235384FF496630093020B12F003025C
:1043B0004FF4805303D0022A30D02AD37FBD029518
:1043C0000395800B02D001282CD07FBD019002986C
:1043D00000B10196009A0A608860019848600398CD
:1043E000C8607FBD4FF416620092DEE74FF496532B
:1043F000DAE74FF416540094D7E74FF49643D3E727
:104400004FF41644F7E74FF46143CDE74FF4E1343E
:10441000F1E74FF4C06502950393D2E74FF480644F
:104420000294F9E74FF40050D0E730B5B0F5966F3D
:1044300015D0B0F5166F14D0B0F5965F13D0B0F567
:10444000165F12D0B0F5964F11D0B0F5164F10D0C0
:10445000B0F5614F0FD0B0F5E13F0ED022E000245F
:104460000CE001240AE0022408E0032406E004240E
:1044700004E0052402E0062400E00724150007D02C
:10448000B2F5806F0BD0B2F5C06F0BD104F580543C
:10449000B1F5005F08BF04F58044A0B230BD04F55B
:1044A0000054F5E7002030BD30B508B9012030BD1B
:1044B0000468DFF8D8120919142200F13803B1FB9F
:1044C000F2F292009A600222DFF8C412596080F87A
:1044D00021202568416882686FF30D150D43C1687E
:1044E000154302690D434169154382690D43C16952
:1044F00015430D43256000241C6000F09FF8002048
:1045000030BDF8B50446002594F82000012801D1FB
:104510000220F2BD94F821600120012E84F82000D1
:1045200024D1022004F12C0684F82100F5602068D3
:1045300007687F087F000760204600F039F921688E
:10454000306820B10A6842F00E020A6008E008688C
:1045500020F0040008602068016841F00A01016051
:104560002068016841F00101016002E084F82050F8
:1045700002252846F2BD10B501680A6822F00E0235
:104580000A6000F13C020B685B085B000B600124D1
:10459000516812688C4054600123002180F821305A
:1045A00080F82010002010BD38B590F8212000249C
:1045B000022A00F1340103D00420486001243BE0CA
:1045C0000268136823F00E0313600268DFF8C43139
:1045D00015686D086D00156002689A4208BF0122D7
:1045E00022D0DFF8B4319A4208BF10221CD0DFF885
:1045F000AC319A4208BF4FF4807215D0DFF8A03179
:104600009A4208BF4FF480520ED0DFF898319A4298
:1046100008BF4FF4803207D0DFF88C319A420CBFCC
:104620004FF480124FF08072DFF880311A6000F092
:1046300005F8096801B18847204632BD012280F89B
:10464000212080F8204070472DE9F84F00F1280222
:1046500004275169544BD1F800E0056853492E688E
:10466000D2F818A04F4CDFF83881DFF83091DFF82E
:1046700028B1DFF820C107FA0AF71EEA070F2DD08C
:1046800077072BD52E68B60603D42E6826F00406CD
:104690002E600568654508BF042318D05D4508BF36
:1046A000402314D04D4508BF4FF480630FD04545DB
:1046B00008BF4FF480430AD0A54208BF4FF48023BF
:1046C00005D09D420CBF4FF480034FF080630B6018
:1046D0005168002958D0BDE8F44F0847022707FA6F
:1046E0000AF71EEA070F32D0B70730D52E68B60694
:1046F00006D42E6826F00A062E60012580F8215087
:104700000568654508BF022318D05D4508BF202312
:1047100014D04D4508BF4FF400730FD0454508BF76
:104720004FF400530AD0A54208BF4FF4003305D020
:104730009D420CBF4FF400134FF000730B6000213B
:1047400080F820101168F9B1BDE8F44F084708213E
:1047500001FA0AF11EEA010F16D0310714D52B68B1
:1047600023F00E032B600124916953698C405C6037
:104770000121116180F82110002180F8201091683A
:1047800011B1BDE8F44F0847BDE8F18FF8FFFDBF58
:1047900000000240080002401C00024030000240BD
:1047A00044000240580002406C00024004000240F5
:1047B00070B5046CC66B0125A54075600468636024
:1047C0004068102802D1A260E16070BDA160E26083
:1047D00070BD704770477047704770472DE9F843C8
:1047E0000746DFF884543878C1074DD5686800F073
:1047F0000C00042807D0686800F00C0008280AD1D3
:104800006868C10307D5286881033DD5786800280A
:104810003AD1012055E17868B0F5803F04D128688D
:1048200040F48030286014E008B928680AE0B0F548
:10483000A02F286806D140F480202860296841F420
:10484000803105E020F480302860296821F480213F
:104850002960786860B100F0C7FB044628688103CE
:1048600012D400F0C1FB001B6528F7D3032028E118
:1048700000F0BAFB04462868810305D500F0B4FBBC
:10488000001B6528F7D3F1E73878DFF8E863810784
:1048900018D5686810F00C0F07D0686800F00C009D
:1048A000082825D16868C10322D42868810702D569
:1048B00038690128ADD12968786921F0F80141EA09
:1048C000C00129603978080746D5B869DFF8A81310
:1048D00000286CD001220A6000F086FB0446686A5A
:1048E00081072AD400F080FB001B0228F7D9BDE71E
:1048F0003869A8B10121316000F076FB04462868D0
:10490000810705D400F070FB001B0228F7D9ADE742
:104910002868796920F0F80040EAC1002860D1E7F2
:10492000306000F061FB044629688807CAD500F0B2
:104930005BFB001B0228F7D998E7DFF8300301681A
:10494000C9084FF47A72B1FBF2F2009200BF0098EE
:10495000411E00280091F9D1387841076ED5E869E9
:104960000024C10009D4E86940F08050E8610124C6
:10497000E86900F0805000900098DFF80083D8F8D4
:104980000000C10520D4D8F8000040F48070C8F8B9
:10499000000000F029FB8146D8F80000C10513D4BF
:1049A00000F022FBA0EB09006528F5D35EE7086064
:1049B00000F01AFB0446686A8107CDD500F014FBAD
:1049C000001B0228F7D951E7F868012808D008B978
:1049D000286A09E00528286A06D140F00400286208
:1049E000286A40F0010005E0400840002862286A7B
:1049F00020F00400286241F28938F86860B100F0C4
:104A0000F3FA8146286A810713D400F0EDFAA0EB8F
:104A100009004045F6D329E700F0E6FA8146286A06
:104A2000810706D500F0E0FAA0EB09004045F6D377
:104A30001CE71CB1E86920F08050E861F8690028A3
:104A40003ED0696801F00C0108293FF4E2AE02286B
:104A50002AD100F038F804462868810105D500F015
:104A6000C3FA001B0228F7D900E7386AB0F5803F87
:104A700005D16968B86821F40031014369606A684A
:104A8000386A796A22F4741202430A436A60012088
:104A900000F01AF804462868810111D400F0A4FA45
:104AA000001B0228F7D9E1E600F00DF8044628685B
:104AB000810105D500F098FA001B0228F7D9D5E648
:104AC0000020BDE8F2830020306600F08DBA2DE9A9
:104AD000F8436B4F05463868894600F007004845A3
:104AE00002D200F086F85FD128685F4C810712D5AA
:104AF000400703D5616841F4E061616028780107EF
:104B000003D5606840F4605060606168A86821F077
:104B1000F001014361602978C8073DD56868012824
:104B200002D121688A0303E00228216802D18A01A8
:104B300002D439E08A0737D56168890840EA8100E4
:104B4000606041F2893800F04FFA06466868012833
:104B50000BD1606800F00C0004281DD000F044FA6E
:104B6000801B4045F5D3032041E002280AD160684C
:104B700000F00C0008280FD000F036FA801B4045EA
:104B8000F5D3F0E7606810F00C0F05D000F02CFAB8
:104B9000801B4045F6D3E6E7386800F00700814502
:104BA00004D200F026F801D0012020E02878410747
:104BB00005D56268E86822F4E06202436260297801
:104BC000080706D56168286921F4605141EAC001EF
:104BD000616000F019F862682A49244BC2F303129D
:104BE000895CC8401860002000F004FA0020BDE88D
:104BF000F2833968C90849EAC1013960386800F0B0
:104C000007004845704700001F4919480A6802F02C
:104C10000C03082B00D0704710B500BF1DA4C2F3D1
:104C20008343D203E35C08D5096858431DA3C1F34D
:104C300040415A5CB0FBF2F010BD1846134948439E
:104C400010BD0A48104A006813681149C3F30222D4
:104C500006E006480C4A006813680D49C3F3C222F7
:104C6000895CC840704700000010024084000020AA
:104C700000127A000000424280044242007000406C
:104C8000002002404C7E00080410024000093D0054
:104C90008080000802030405060708090A0B0C0DB2
:104CA0000E0F1010010280B500F0C4F900F00EF8EC
:104CB00000F0F8F9062000F051FA0028FAD1052199
:104CC000062000F052FA00F05BFAF3E700B58FB06F
:104CD000282105A800F076FA1421684600F072FA3F
:104CE0000221012205910992102102220A910C92BF
:104CF00000214FF460120D910E9205A8FFF76EFD92
:104D0000022101910F204FF4806100900022039155
:104D10000292049202216846FFF7D9FE0FB000BD4F
:104D2000704700002DE9F847824600208646694A10
:104D3000694BDFF8A8814FF00F0901240F6804FACE
:104D40000EF63740B74240F0A6804C683CB3012CC9
:104D50001AD0022C1DD0032C2ED0112C16D0122CC0
:104D60001AD05F4DAC421CBF5E4DAC4217D05E4DB9
:104D7000AC421CBF5D4DAC4211D05D4DAC421CBF7E
:104D80005C4DAC420BD018E0C86816E0C868001D46
:104D900013E0C868083010E0C8680C300DE088687F
:104DA00008B9042009E0012819BF0820CAF81460D6
:104DB0000820CAF8106000E00020B7F5807F03D219
:104DC000D4464FEA8E0404E0AEF108040AF1040C64
:104DD000A400DCF8005009FA04F6B54300FA04F424
:104DE0002C43CCF800404C68E40054D5D8F800407F
:104DF00044F00104C8F800404FEA9E0CD8F8004087
:104E000004F001040094009C53F82C604FEA8E04D7
:104E100004F00C0409FA04F526EA0505364EB245FD
:104E200008BF00260ED0354EB24508BF012609D076
:104E3000334EB24508BF022604D0324EB2450CBFF5
:104E40000326042606FA04F42C4343F82C40FE43C0
:104E50004C68E50303D514683C43146002E0156810
:104E6000354015604C68A50354684CBF3C43344042
:104E700054604C68E50294684CBF3C4334409460F5
:104E80004C68A50203D5D4682743D76003E0D768F0
:104E900006EA0704D4600EF1010EBEF10F0F7FF693
:104EA0004CAFBDE8F1878068084018BF0120C0B250
:104EB000704702B9090401617047C2685140C1607E
:104EC0007047114A136803421CBF106000F09DB97F
:104ED0007047000000040140080001401810024023
:104EE000000011100000121000002110000022101C
:104EF000000031100000321000080140000C014099
:104F00000010014000140140140401400901020096
:104F100006D52F4A00F00F00104400F8041C70471B
:104F20002C4B195470472C4B19684FF6FF020002A6
:104F3000114000F4E06008432849084318607047B6
:104F400070B5254B1C68C4F302230124C3F1070587
:104F5000052D2EBF0F2504FA05F56D1E1E1D072E0B
:104F600034BF0023DB1E2940994004FA03F3BDE857
:104F700070405B1E1A401143C8E7012200F01F0178
:104F8000174BFFE78A40400943F82020704710B5CF
:104F9000401EB0F1807F01D3012010BD114C606034
:104FA0000F214FF0FF30FFF7B1FF0021A160072074
:104FB0002060002010BD04280A4904D1086840F090
:104FC0000400086070470A6822F004020A60704713
:104FD00018ED00E000E400E00CED00E00000FA0550
:104FE00000E100E010E000E001484068704700BFC9
:104FF0000000002038B50D4D0D4B2A7804464FF4C3
:105000007A711868B1FBF2F2B0FBF2F0FFF7BFFF64
:1050100050B9102C08D2002221464FF0FF30FFF784
:105020008FFFAC60002032BD012032BD00000020A7
:105030008400002080B50748016841F0100101603C
:105040000320FFF770FF0020FFF7D4FF00F004F902
:10505000002002BD0020024001460E222C4800F034
:1050600032B938B504462A4D0E222146284600F0B2
:1050700095F92378012B14D0012020700021617054
:10508000E1602161A1604FF416522249224861611A
:10509000A0612146284662600E22BDE8384000F03B
:1050A00012B931BD10B500F087F900F0B5F9402014
:1050B00000F004FA19481A4C00F03BFA2046FFF7BA
:1050C000D0FF00F0D1FB2146164800F06AFC00F04A
:1050D000ABFD00F0C9FD01F08BF801F0BBF8010059
:1050E000114908BF0120087001F0F1F801000F49D3
:1050F00008BF0120087001F00BF90D4861780170BC
:1051000001F02AF9BDE8104001F03CB900000000B0
:1051100000FC00085B42863F52491D3BB40A002058
:10512000C80B0020300000200801002009010020E9
:10513000240C00200021114800EBC1021378012B40
:1051400008D150880128506802D118B1401E00E0F3
:10515000401C5060491C0829EDDB704700BF07491F
:1051600001EBC000406880B27047044A02EBC00007
:10517000012343804160037070470000740A0020DF
:1051800038B50D4C0EA0617850F821000B4D6060D1
:105190000021217020786168C140CA0744BF55F8DA
:1051A000200080472078401C2070C0B20528F1D331
:1051B0000020607031BD0000140C0020087D000844
:1051C0000F000000002201F033B9000038B504469A
:1051D0001F4D402100F010F82070802100F00CF8E5
:1051E00060704FF4807100F007F8A0704FF4007108
:1051F00000F002F8E07031BD2846FFF754BE00EB26
:1052000041008188491C818070474028114A08D09C
:10521000802808D0B0F5807F07D0B0F5007F06D099
:105220007047002104E0012102E0022100E0032197
:105230001046E4E780B50320FFF790FF38B9C82196
:105240000320FFF792FFBDE802400248BEE701BD20
:10525000000C0140080C002080B50F48016841F0A7
:1052600001010160026802F00102009200994268A7
:1052700042F080524260406800F0805000900098F8
:105280000520FFF750FE0548016821F0E06141F07C
:105290000071016001BD00BF181002400400014010
:1052A000F8B504460D461646002708E035F81020EC
:1052B00000232146012001F0D5F8A41C7F1CB8B2C0
:1052C000B042F3D3F1BD2DE9F84F804608F178479D
:1052D000B7F5803F894601D3BDE8F18F1446BD0A7A
:1052E000C7F3480601F0F9F8C6F50077BFB2A74248
:1052F000A8BF2746A80200F1006ADFF898B04FF473
:1053000000725946504600F049F800204FF6FF72EF
:1053100005E081193BF8111091420AD1401CB842B6
:10532000F7DB4CF2503001F0FBF83A464946404674
:1053300019E0504601F04AF94CF2503001F0F0F813
:105340001548016821F002010160002005E039F8EC
:10535000101032182BF81210401CB842F7DB4FF433
:10536000007259465046FFF79BFFA0B2B84203D1E6
:10537000BDE8F14F01F0C1B809EB470908EB470858
:10538000E41B6D1C0026A7B2B7F5007FC8BF4FF421
:105390000077AFE70C0100201020024030B5002359
:1053A00005E030F8024B9DB221F815405B1C9CB221
:1053B0009442F6D330BD000080B51648016841F034
:1053C000010101600122006800F00100009001214C
:1053D00000980E20FFF7B4FD0E20FFF7CEFD01224E
:1053E00001210F20FFF7ACFD0F20FFF7C6FD0222C1
:1053F00001211020FFF7A4FD1020FFF7BEFD0222BF
:1054000001211120FFF79CFDBDE802401120FFF7AC
:10541000B4BD00BF1410024010B586B002A8002130
:1054200000220023002480E81E00CDE900123F2066
:105430001F4C20496060216040F2E730E060A260CC
:105440002261A261204600F067F808B1FFF768FC0E
:105450004FF48050029002A9204600F02BF908B1C9
:10546000FFF75EFC0021009101912046694601F0A2
:10547000BFF808B1FFF754FC06B010BD00680D4935
:10548000884200D0704780B50B48026842F00202A3
:1054900002600022006800F00200009003210098E2
:1054A0001D20FFF74DFDBDE802401D20FFF765BD43
:1054B000B40A0020000400401C10024010B504464D
:1054C0000420FFF778FD0C490C6010BD30B50B4B84
:1054D000094D1C6829684843596800225D688D425F
:1054E000FCD002D28A18521B02E0A218521B8A1862
:1054F00082422946F2D330BD1C0C002014E000E0AB
:1055000038B50446002504E04FF47A70FFF7DEFF5B
:105510006D1CA542F8D331BD38B5040001D101207E
:1055200032BD00F01FF818B900F018F8FFF7A6FF19
:105530000AE00068C16841F00101C160026842F000
:10554000010202600020704702206870211D20685F
:1055500000F01BF901206870002032BD0021297085
:105560002046704704F13C056878704710B5044642
:10557000206801698A0715D5C1688A0712D56FF0BE
:105580000201016101222277806910F0030F204699
:1055900002D001F052F803E001F050F800F087F873
:1055A00000202077206801694A0715D5C1684A079D
:1055B00012D56FF00401016102222277806910F494
:1055C000407F204602D001F038F803E001F036F8C1
:1055D00000F06DF800202077206801690A0715D5D2
:1055E000C1680A0712D56FF0080101610422227711
:1055F000C06910F0030F204602D001F01EF803E04E
:1056000001F01CF800F053F80020207720680169B1
:10561000CA0615D5C168CA0612D56FF0100101611E
:1056200008222277C06910F4407F204602D001F0A2
:1056300004F803E001F002F800F039F800202077C8
:1056400020680169CA0708D5C168CA0705D56FF087
:1056500001010161204600F0F2FF206801690A069D
:1056600008D5C1680A0605D56FF0800101612046A2
:1056700000F0E6FF206801694A0608D5C1684A06BD
:1056800005D56FF040010161204600F0DAFF206887
:1056900001698A060AD5C1688A0607D56FF020011C
:1056A00001612046BDE8104000F0CCBF10BD20468F
:1056B00000F0C9BF38B500F05CF801D1022032BD5E
:1056C0000120207002226270DFF81C012A689368B2
:1056D000034093600A68002A37D0102A37D0202A66
:1056E00037D0302A37D0402A2BD0502A1ED0602AFB
:1056F00020D0702A0BD0B2F5805F03D0B2F5005FE6
:105700000CD02CE028688168C908C9000CE000F0C2
:105710002BF82868816841F0770105E000F024F853
:105720002868816841F48041816018E000F018F831
:10573000502111E0CA684968286800F06EF86021BD
:105740000AE000F00DF8402106E0002104E01021FD
:1057500002E0202100E03021286800F070F80EE01F
:10576000CA684968286849E0CB684A688968286837
:105770006DE0054605F13C042078012870470120C2
:10578000607000212170002032BD70B5174E036893
:10579000174C184DB04218BFB0F1804F03D0A8424B
:1057A00018BFA04209D14A6823F070031343B042E6
:1057B0001CBFB0F1804FA84201D0A04203D1CA68FB
:1057C00023F4407313434A6923F0800313430360B7
:1057D000B0428B68C3620A68826202D10969064AD4
:1057E00011600123436170BD8800FFFF002C014060
:1057F0000008004000040040302C014010B5036A4E
:10580000046A64086400046223F00A03846924F0D3
:10581000F00444EA0214846123E010B5036A23F023
:10582000100303628369046A23F4704343EA02337A
:1058300024F0A004836144EA0114046210BD82686C
:1058400022F07002114341F007018160704710B5EA
:10585000846824F47F442143114341EA0321816099
:1058600010BD1943016210BD30B585B000F028F8B5
:105870003D4D01683D4C00F02CF82846FFF719FB20
:1058800001224FF400512046FFF713FB2021019124
:1058900001220292002103910322049201A92846C9
:1058A000FFF740FA4FF40050019001A92046FFF79E
:1058B00039FA2F492F4B01200870187005B030BD00
:1058C00001A8002100220023002480E81E002A48AD
:1058D000704741F004010160026802F00402009286
:1058E0000099026842F0100202600022006800F095
:1058F000100000902021009B704700281A4B14BF15
:1059000001220022202106E0184B002814BF0022AB
:1059100001224FF400511846FFF7CBBA10B50446E8
:10592000207800281CBF6078002813D0E078FFF7AB
:1059300015FC78B9A188E068FFF7BFFAA0780328C2
:1059400002D10021617010BDA168E078BDE810406F
:10595000FFF70BBC10BD80B50548FFF7DFFFBDE8C2
:1059600002400448DAE7000000080140001001404E
:105970005C000020700000201810024030B50021AB
:10598000002518224A430244964B974C1360491C49
:10599000964B556001299560D56014615361F0DD27
:1059A00030BD78B585B004460D4601A8002100221F
:1059B0000023002680E84E008D48016841F0080170
:1059C00001604FF48052006800F00800009001234D
:1059D00000990192039603220293049201A9854E35
:1059E0003046FFF79FF900F02FFE206801680A6833
:1059F00042F040020A60FF2100F08CFE00F009F83E
:105A00007D48FFF7BBFF6869E061A969216206B0C4
:105A100070BD01224FF480513046FFF74ABA3EB5BF
:105A200004460D46032102A8FFF7CCFB032101A881
:105A3000FFF7C8FBC5F3800141F006018DF808109F
:105A40004FF47A70A90100908DF8091003232068A3
:105A500001AA02A900F06CFE01A8417801F00F0133
:105A600041709DF8060040EA012004EB4501888062
:105A700037BDF8B5182359434518296828691446D5
:105A800001F00EF8064668696E60314601F008F8CC
:105A90000146304601F076F8AF680646EE602046D3
:105AA000394601F0EDF8314601F02AF9394600F0A7
:105AB000F7FFA8604FF07E50E96801F0E1F86968EF
:105AC00001F01EF92860A868F2BD2DE9F04E0446E9
:105AD0000020FFF743FB002840F07F800521FFF7FF
