:020000040800F2
:1000000050100020AD5F0008215B0008235B000852
:10001000255B0008275B0008295B00080000000042
:100020000000000000000000000000002B5B000842
:100030002D5B0008000000002F5B0008315B00080A
:10004000D15F0008D55F0008D95F0008DD5F0008B8
:10005000E15F0008E55F0008E95F0008ED5F000868
:10006000F15F0008F55F0008F95F0008FD5F000818
:100070000160000805600008355B00083B5B000874
:10008000415B0008475B0008096000080D6000083C
:100090001160000815600008196000084D5B000839
:1000A0001D60000821600008256000082960000824
:1000B0002D6000086F5B00087F5B0008316000085E
:1000C00035600008396000083D60000841600008A4
:1000D000855B00088B5B0008B55B00084560000885
:1000E000496000084D600008516000082DE9F14F9B
:1000F000B2B09946924600230691CDE900333C9A6E
:100100000F930DF14A0114914A7011E0329E574647
:100110002C4617F8011B0698B0470028069000F0FF
:1001200026810F98401C641E0F90F2D13296AA448B
:100130009AF80000252808D10021002209910A928E
:100140000B910C920D910E920FE06A464FF0FF3129
:10015000504601F07FF8050002D10F9800F066BE0E
:10016000D4D50125E3E741F001011AF8010F202859
:10017000F9D023280CD02B2804D02D2805D03028E6
:1001800009D00BE041F00201EFE741F00401ECE798
:1001900041F00801E9E741F01001E6E72A280FD114
:1001A000D9F8002052F8040BC9F80020002811905B
:1001B00003D54042119041F004010AF1010A14E014
:1001C0001192DFF8EC3B0AE01198984205DA00EB57
:1001D000800402EB4402303A11920AF1010A9AF8C3
:1001E0000020A2F130000A28EED39AF800002E2851
:1001F00003D04FF0FF32109229E01AF8010F2A289D
:1002000009D1D9F8000050F8042BC9F80000109269
:100210000AF1010A1BE02D280CBF0AF1010A002097
:1002200000221092DFF8882B0BE040B9109B93421C
:1002300005DA03EB830504EB4504303C10940AF126
:10024000010A9AF80040A4F130030A2BEDD3ADF86F
:1002500048100FF660309AF8001001F005F808B168
:100260001AF8010B8DF84A009DF84A00682805D15C
:100270009AF8000068280CD1622106E06C2804BFBF
:100280009AF800006C2804D171218DF84A100AF107
:10029000010A1FA808901AF801BBBBF125012DD057
:1002A0001C3900F06181091F022940F25D810E397D
:1002B0002AD0491F00F0B384093900F05581891E06
:1002C00000F04985491E00F0F584491E022940F2DC
:1002D0004B81091F00F0EE84491F00F0BA80491ECF
:1002E00000F09D84491E65D0C91E21D0891E00F0F2
:1002F0009684C91E00F0938400F04CBD25238DF830
:100300007C30012109912AE06C208DF84A00D9F84F
:10031000000050F8042BC9F80000002A43D11499BA
:10032000487800283DD04FF0FF340FF6902012E0BF
:100330009DF84A006C28EAD0D9F8000050F8044B28
:10034000C9F800000794D4B91499487898B14FF0CF
:10035000FF340FF6842000F0A1FF201A07D1329855
:100360001FAA04A900F065FD00287FF5E1AE4FF05B
:10037000FF3000F05BBD0FF67C200790EFE7109D8B
:10038000002D04D5204600F0A9FF044607E02A46C8
:10039000204600F0ADFF002814BF041B2C460A9431
:1003A000DDE70FF65422329804A900F0C8FD0028BA
:1003B000D5D5DCE7D9F8001051F8040BC9F80010C6
:1003C00020F00004002121F0FF351FABCDE90445EA
:1003D0000793DDE9042308993C2413B90AB910985E
:1003E00098B102F00F053035641EEEB23A2EA8BF68
:1003F0002735120942EA03721B090D5508BF002A6E
:1004000003D007980D19A842EBD308190790C4F13F
:100410003C0210980A92824209DABDF84810821A0A
:100420004FF6EF7001400C92ADF8481097E70028A6
:1004300095D59DF8480000F0140010288FD1119B2D
:1004400009990C985B1A1B1A9A1A002A87DD0C92DC
:1004500085E71499487820B14FF0FF340FF69C10CF
:1004600079E79DF84A00622862D0682819D06A2886
:1004700040D06C2806D071284DD074282DD07A2811
:100480001ED064E0D9F8001051F8040BC9F8001030
:1004900020B94FF0FF340FF67C105CE70F99016034
:1004A0005DE7D9F8001051F8040BC9F8001020B925
:1004B0004FF0FF340FF65C104DE70F9901804EE7C7
:1004C000D9F8001051F8040BC9F800100028E5D144
:1004D0004FF0FF340FF63C103DE7D9F8001051F80B
:1004E000040BC9F800100028D8D14FF0FF340FF6E4
:1004F000241030E7D9F8001051F8040BC9F80010A7
:1005000020B94FF0FF340FF60C1024E70F9AD317E1
:10051000C0E9002323E7D9F8001051F8040BC9F80B
:1005200000100028F2D14FF0FF340FF6E80012E778
:10053000D9F8001051F8040BC9F8001020B94FF099
:10054000FF340FF6D00006E70F99017007E7D9F8DE
:10055000001051F8040BC9F8001000289ED14FF08C
:10056000FF340FF6B000F6E6D9F80020D21D22F0D5
:100570000702C9F80020D2E900010832C9F80020BA
:10058000CDE90401C80F02D009982D210AE0BDF879
:100590004800810702D509982B2103E0C00705D543
:1005A000099820211FAA1154401C0990DDE9042359
:1005B00009991FA8CDE92E2308444BF02001612999
:1005C000079015AC0BD01099002902D50621109187
:1005D00005E001BF4BF02001672901221092DDE9FF
:1005E000042359004915491C10D11A030ED0ABF150
:1005F000610503211A2D0A9102D20FF6A43101E000
:100600000FF6A031032200F09FFEA8E6590049151D
:10061000491C0AD11A0308D1ABF1610503211A2D37
:100620000A9116D30FF68431ECE7DDE90401CDE938
:100630003001DDE9302323F00047B7F5801F22F0B9
:1006400000060DD20022002F08BF002E029203D117
:1006500016E00FF65431D5E702AA00F081FE0FE054
:10066000DFF8EC0ADFF8EC1A00EB17500290DDE936
:1006700030234FF0FF301940DFF8DC7A1040394367
:10068000CDE904014BF0200061280DD107983021FD
:100690000170821CBBF1610F07920CBF78215821B9
:1006A00041700998801C0990DDE9040120F00002E6
:1006B00031F0004308BF002A02D10026002571E175
:1006C0004BF02008B8F1610F40F0BE801098002870
:1006D00047BF21210391401C0390039FDDE92E01B8
:1006E0007F1C00220023DDE9044500F071FE029921
:1006F0008DF8542038BF85F00045091F002F029166
:100700000DF155065DDDDFF8541ACDE9302140F2D8
:10071000FF732E93204629460022002300F074FE2A
:100720004FD24800400D00F11C0215D0002A13DD05
:100730002E9B9A420ADBDDE9300121F0004205F0F0
:1007400000400243DDE93001114611E06FF31E5114
:1007500041EA025120460BE024F0000035F0004150
:1007600008BF00280FBF29461C22294600F064FE5E
:1007700004460D4600F0FEFEFF1F002F804609DDF7
:1007800000F016FF02460B462046294600F022FFE5
:1007900004460D46F01D0721B8F1000F0CDD491E7F
:1007A0005EBF08F00F0200F8012D4FEA2818F3D5BC
:1007B00002E0002200F8012D491EFAD5C61D002FC7
:1007C000A8DC0DF15500361A03988642D8BF304692
:1007D00000280DF1550430D4B04206DA0DF1550170
:1007E0000A5C082AA8BF0F2100DA0021024615ABD7
:1007F000134400E0401E13F80159521E8D42F9D0F7
:100800000F2904D10DF155018B5C5B1C8B54002A20
:1008100004D50299091D15AC401C0291411E0CD44F
:100820006218ABF13A0613783033DDB23A2DA8BF27
:10083000F318491E02F80139F5D51099002940F145
:10084000AF80421E1092ABE00299DFF8142947F204
:100850009750414391FBF2F2DDE92E45029225F0DB
:100860000045D2F1070204DD2046294600F04CFC89
:100870000BE052420020DFF8EC1800F045FC024685
:100880000B462046294600F017FF0446B8F1660FD4
:10089000109806BF029F0A3706273F18142FC8BFBB
:1008A000142730208DF854000D460020DFF8B818CA
:1008B000CDE92E010DF15506002F33DD20462946E6
:1008C00001F01EF801460A4606F1080304200A2634
:1008D000B2FBF6F606EB860EA2EB4E02303203F8C0
:1008E000012C0A22B6FBF2F202EB820EA6EB4E06B8
:1008F0003036401E03F8026DE9D1083F002F03F1A6
:100900000806D9DD084601F00FF802460B462046DE
:10091000294600F05FFEDDE92E2301F013F80446BE
:100920000D46CBE70DF15500361A0DF1550404E0E4
:100930000298401E761E0290641C20783028F7D062
:10094000B8F1660F02D10299491C04E0B8F1650FB5
:100950000CBF01210021109808188642B8BF701EF4
:1009600000281DD4B04204DA215C3429C8BF3921E3
:1009700000DC30210246631E9D1800E0401E15F881
:100980000169521E8E42F9D0392902D1A15C491C5D
:10099000A154002A04D50299491C1C46401C02910E
:1009A0000646029D00F05AFC406A0778DDF8408058
:1009B00030B2002802DC01260FF2F4744BF0200064
:1009C000662808BF6D1C16D0672846D128B210F1E2
:1009D000040F48DB404546DA9DF848006D1C0107CE
:1009E00003D430B24045B8BF804628B2B8EB000807
:1009F00048BF4FF000080FFA85FB07980A99BBF132
:100A0000000F00F3B2804A1C0A9230234354B8F11D
:100A1000000F03DC9DF84800010704D50A98411C2B
:100A20000A9107990F5418EB0B0FB8BFC8F10005D6
:100A30002DB268420D90A84432B29045B8BF4646E8
:100A4000079B0A9836B20B9632462146184400F0AE
:100A50007BFCA8EB06000E90CBE0BBF1610F17D139
:100A60004FF0700B19E030B2404504DA9DF84810A1
:100A70000A0758BF8046B8F1010848BF4FF0000888
:100A8000BBF1670F14BF4FF0450B4FF0650B04E04F
:100A9000BBF1410F08BF4FF0500B0A98411C0A915F
:100AA000B8F1000F079914F8012B0A5403DC9DF8E4
:100AB000480001071AD50A98411C0A91B8F1000FA5
:100AC00007990F5412DD761E30B2804507980A9BB5
:100AD000B8BF464632B22146184400F035FC0A99A8
:100AE00036B271180A91A8EB06000D9007980A9982
:100AF00008442AB2002A80F800B003D42B224270A6
:100B0000811C04E02D2141701546811C6D4200209E
:100B10002EAA0A2409E02B4693FBF4F505EB850683
:100B2000A3EB460302F8013B401C2DB2002DF2DC82
:100B3000012806DC4BF02002652A04BF302201F8B0
:100B4000012B00282EAA08D1302001F8010B06E065
:100B5000401E135C303301F8013B0028F8DC079A93
:100B60000A981044091A0B9143E0084431B22AB2A2
:100B7000914219DA32B2214600F0E6FB0A9936B208
:100B80007118ABEB0606B8F1000F0A910D9603DC65
:100B90009DF84800020704D5079847540B99491C53
:100BA0000B91CDF8388024E0214600F0CDFB0A9867
:100BB000761B5844B8F1000F0A9003DC9DF84810EA
:100BC0000A0703D5411C0A9107990F5430B280459A
:100BD00007980A9BB8BF464632B204EB0B01184493
:100BE00000F0B2FB0A9836B230180A90A8EB060063
:100BF0000D909DF8480000F0140010287FF4AFAB72
:100C0000099A0A990D988A180B9982180E988A18D1
:100C1000821811988242BFF6A2AB821A17E49DF89F
:100C20004A00622808D068280ED06A2814D06C28A0
:100C30001FD0712810D01CE0D9F8001051F8040B17
:100C4000C9F80010C0B21AE0D9F8001051F8040B2E
:100C5000C9F8001080B212E0D9F80020D21D22F0AD
:100C60000702C9F80020D2E900010832C9F80020C3
:100C700006E0D9F8001051F8040BC9F80010002163
:100C8000CDE904019DF8480001075AD5DDE90423A8
:100C9000002B08BF002A54D04BF02000782850D1F8
:100CA00009981FA930220A54401C431C099301F8DB
:100CB00000B046E09DF84A00622808D068280ED0AF
:100CC0006A2814D06C281FD0712810D01CE0D9F8E5
:100CD000001051F8040BC9F8001040B21AE0D9F81E
:100CE000001051F8040BC9F8001000B212E0D9F856
:100CF0000020D21D22F00702C9F80020D2E900012D
:100D00000832C9F8002006E0D9F8001051F8040BA9
:100D1000C9F80010C117CDE90401002902D50998CE
:100D20002D210AE0BDF84800810702D509982B2142
:100D300003E0C00705D5099820211FAA1154401CC3
:100D400009901FA809990144079104A8594600F089
:100D500056F9FFF704BB9DF84A006C280BD001211F
:100D60000991D9F8000050F8041BC9F800008DF86B
:100D70007C10FFF7F4BAD9F8000050F8041BC9F84A
:100D8000000015914FF0FF3210920021169115AA24
:100D9000FFF709BB25210122BBF1000F8DF87C1064
:100DA00009923FF4DCAA8DF87DB00221FFF7AABAC0
:100DB000CBCCCC0C686A6C747A4C00007072696E93
:100DC00074665F733A2062616420256C73206172DF
:100DD00067756D656E7400007072696E74665F731E
:100DE0003A2062616420257320617267756D656EBB
:100DF0007400000000000000000000007072696EC6
:100E000074665F733A20256E20646973616C6C6F41
:100E1000776564007072696E74663A20626164205E
:100E2000256E20617267756D656E740033B0BDE824
:100E3000F08F2DE9FC410F46064690467A6B7869A3
:100E4000396ABC6A121AB869521A796A121AF869B0
:100E5000521A121A97F83800141B41070FD4202099
:100E6000002C8DF800000ADD254601236A4639462C
:100E7000304600F07DF900285DD16D1EF5D17B690B
:100E800042463946304600F073F9002853D13020ED
:100E90008DF800003D6A002D09DD01236A463946C0
:100EA000304600F065F9002845D16D1EF5D1BB69CB
:100EB000FA683946304600F05BF900283BD1302013
:100EC0008DF800007D6A002D08DD01236A46394651
:100ED000304600F04DF970BB6D1EF6D1F868B96967
:100EE000FB6942183946304600F042F918BB302001
:100EF0008DF80000BD6A002D08DD01236A463946E1
:100F0000304600F035F9B0B96D1EF6D197F83800CB
:100F100041070DD52020002C8DF8000008DD0123AD
:100F20006A463946304600F023F920B9641EF6D1EE
:100F30000020BDE8F6814FF0FF30BDE8F6812DE9D5
:100F4000F8470D46A3B02F6B002F8246904648BF4E
:100F50006FF0004700F0C7FD696B401801AA00213F
:100F6000C2E90011812828BF4FF0FF3044D28946E2
:100F70001EE0A74230DB6869201881280BD30021CE
:100F8000696303AA29465046FFF753FF5FEA000949
:100F900022D40020686103AB6E6922466946981925
:100FA00000F0D2F9A6196E6158F8040BA0B13F1BEE
:100FB000002F11DDD8F8001001AA684600F04CF9A6
:100FC0000446002C05D4D8F800000028D1D1641EB6
:100FD000CFD54FF0FF390EE0B9F1000F504604D1E4
:100FE00003AA2946FFF725FF8146B9F1000F02D178
:100FF000002068616863484624B0BDE8F0872DE9A9
:10100000FC4307466F293E6908BF082405D041F01C
:101010002000782814BF0A2410243C25D7E9002397
:10102000642918BF69299046994605D1002B03D53C
:10103000D8F1000869EB4909B9F1000F08BFB8F110
:10104000000F0CD1386B50B9082C39D197F8380003
:10105000010735D530203B2586F83B0030E08DF880
:101060000010404649462246E31700F041FD303269
:10107000D0B26D1E3A28019504DB9DF80000A0F166
:1010800051018A187255404649462246E31700F03E
:101090002FFD80465FEA010908BFB8F1000F03D0B9
:1010A000F86871198842DCD3082C09D197F8380008
:1010B000010705D5705D302802D06D1E30207055B7
:1010C000C5F13C02BA617119F960386B824208DAE5
:1010D000821A3A624FF6EF70398F01403987BDE8C6
:1010E000F38300280ED597F8380000F0140010287C
:1010F00008D17B6B7969386A5B1A1B1A9A1A002A25
:10110000C8BF3A62BDE8F3832DE9D04306460F46D7
:1011100014464FF00008DFF8549012E0E00707D5BE
:1011200042464B463046394600F00CFC06460F4618
:101130004046494642464B4600F004FC6410804657
:101140008946002CEAD130463946BDE8D0830000FC
:1011500002FCFFFFFFFF0F800000E03F0000F07F78
:10116000A08601000000F03F84D797410000244092
:10117000F8B505460E4617461C4600205CB117F828
:10118000011BB068A847B06030B1F06A401CF06243
:101190000020641EF3D1F2BD4FF0FF30F2BD00001D
:1011A0006E616E004E414E00696E6600494E46000B
:1011B000300030B4002513E050F8042BD30744BFAF
:1011C000A9F101039A18091F042942F8045BFAD215
:1011D00013468C0744BF15809B1CC90748BF1D7070
:1011E00050F8041B0029E7D130BC70471C487047F9
:1011F00070B45368D41801E05B1C491E042B08DA54
:1012000000291FBF057804F8015B10F8016B002E60
:10121000F2D1536070BC704738B514461D4661B1B9
:10122000FFF7E6FF61686A6B204690476FF00102A6
:10123000811A02D0491E01D001E003E005E000213F
:10124000616032BD6FF0010032BD4FF0FF3032BD42
:10125000DA6B1047024BDFE7014BF9E701487047B3
:10126000B40000207C000020C9B202788A421AB182
:101270001CBF10F8012FF9E718BF00207047B1F527
:10128000807F02D34FF0FF3070470170012070471C
:101290000078401E8041C043C00F704780B500B940
:1012A00006A005490B681BB122220021984701E0E6
:1012B00000F036FD222002BD440C0020636F6E73E7
:1012C000747261696E742068616E646C65723A2034
:1012D000626164206D6573736167650000F10103ED
:1012E00010F8011B11B110F8011BFBE7C01A704781
:1012F000C9B2830706D0521E22D310F8013B99428F
:10130000F7D11FE0083A13D302F1040241EA0121A8
:1013100041EA014150F8043B121F21BF4B40A3F1A9
:10132000013C2CEA030C1CF0803FF3D0C9B2001F33
:10133000083210F8013B521E28BF91EA030FF8D87B
:1013400018BF0120401E70474AB1000011F8013B50
:10135000521E00F8013B1CBF11F8013BF8E7704733
:1013600010B5144600F002F8226010BDC1F30A5314
:1013700043B14A0012F5001F28D2A3F2FE32A1EBBE
:101380000251704750EA410C20D001F0004C31EA84
:101390000C01B1FA81F204BFB0FA80F3D2180B3A13
:1013A000B2F120032CBF00FA03F1914041EA0C0195
:1013B0003EBFC2F1200C20FA0CF319439040524278
:1013C00040F2FD33D21A01EB0351704700227047FF
:1013D0004FF4001C1CEB410F94BF1CEB430F09E0C2
:1013E00041EA030C50EA4C0C52EA0C0C03D299422D
:1013F00008BF9042704714BF8B4282427047026818
:10140000531C0360117070474FF4001C1CEB410F1C
:1014100094BF1CEB430F09E041EA030C50EA4C0C6B
:1014200052EA0C0C03D28B4208BF8242704714BFB1
:101430009942904270472E00124254D440F2FF7CF1
:101440001CEA11530FD0634531D09B1863453CBF54
:1014500001EB0251704701F0004141EA0C510020BC
:10146000AFF30080704750EA410320D001F0004CF8
:1014700091EA0C011CD0B1FA81F30B3B9A420DD9D1
:10148000D21A994051EA0C01C3F1200C20FA0CFC4D
:1014900061449840531C40F2FF7CD7E7914041EAF9
:1014A0000C01C2F1200C20FA0CF319439040704754
:1014B000B0FA80F31533202BE0D3202AEED3203A64
:1014C000203B9A4209D9D21A00FA03F141EA0C01F1
:1014D0000020531C40F2FF7CB8E700FA02F141EA19
:1014E0000C0100207047524240F2FF7C1CEA11536D
:1014F0000DD06345DBD0B2EB030C3CBFA1EB025136
:1015000070470CF1010221EA035141F4801150EAC5
:10151000410CCCD001F0004C352A27DC30B481EAF4
:101520000C01B2F1200309DAC2F12003044601FAEA
:1015300003F5D0402843D1409C400CE0C3F1200289
:10154000450020FA03F418BF44F0010421FA03F027
:1015500091400C43002174F1004550F1000051EB23
:101560000C01244230BC7FF47BAF70476146002001
:1015700076E74300C1F30A5340F2FE329B1A14DDB2
:10158000D3F120034FEAE17208DDC90241EA50516C
:1015900041F00040D84080185040704703F2E130DD
:1015A00010B1D24382F00040704700207047000025
:1015B000C11768B14840401AB0FA80F29040D21C7E
:1015C000C907C2F5846241EA025202EBD02140050C
:1015D0007047000070B44FF0004591EA030F40F1EE
:1015E000AB836B40841A71EB030603D2001BB1413D
:1015F000121973414FF4001C1CEB410F34BF7CEBFC
:10160000430442E00C0DA4EB1356352E4FDC45EAA3
:10161000C323DB0A45EAC121C912B6F120050DDD5D
:1016200063FA05F6EB4086EA0305124218BF45F05F
:101630000105C01851F100010CD213E062FA06F561
:10164000F2405540F3415A40B340F3405A408018AD
:10165000594107D349085FEA30005FEA350528BFE2
:1016600045F0010501F58011420875F1004250F185
:10167000000041EB04514E0016F5001F70BC38BF4E
:1016800070470020090D090570471CEB410F10D26F
:1016900052EA43060BD0BCEB410F05D80C0DAB430F
:1016A000661E342EB6DD02E0AB438018594170BC93
:1016B000704770BC70470000F0B540F2FF7581EADA
:1016C000030C0CF0004C15EA11541DBF15EA13571A
:1016D000AC42AF42E5E0BC41C1F31301C3F31303D5
:1016E000801A994143F4801304D2641E400049419A
:1016F00080185941C90241EA5051B1FBF3F603FB8E
:101700001611A2FB0675D7EBC020A94102D2761EA6
:1017100080185941C90241EA5051B1FBF3FE03FB65
:101720001E11A2FB0E75D7EBC020A94103D2AEF16A
:10173000010E80185941890241EA9051760546EA26
:101740008E2EB1FBF3F603FB1611A2FB0675D7EB49
:101750008020A94102D2761E80185941C90241EA6F
:1017600050514EEA060EB1FBF3F603FB1611A2FB35
:101770000675D7EBC020A94102D2761E80185941C8
:10178000C90241EA5051B1FBF3F703FB1711A2FB69
:101790000735D3EBC020A94167F100070CBF004219
:1017A00047F0010766F3D5274FEA1E31B80814F554
:1017B000806412DDBD0775F1004250EB0E5051EB15
:1017C000045111F5801F5CBF41EA0C01F0BD4CF0E3
:1017D0007F6141F0E0410020F0BDBD076D0840EAA7
:1017E0000E5041F48011D4F10104B4F120060ADA5C
:1017F000C4F120060200E04001FA06F3E14018437C
:10180000B24015430EE0342C13DCC6F1200445EA47
:1018100040056D0820FA06F2154321FA06F0A140B2
:101820000D43002175F1004250F1000051EB0C0115
:10183000F0BD00205FEA0C01F0BDCFB992185B410A
:10184000B3FA83F704BFB2FA82F6BF190B3FB7F1C0
:1018500020062FBF02FA06F3BB40C7F1200622FA8A
:1018600006F638BF3343BA401CB1E419641E33E7AF
:101870007F4231F00041B1FA81F404BFB0FA80F642
:10188000A4190B3CB4F120062FBF00FA06F1A140C9
:10189000C4F1200620FA06F638BF3143A0403C1BB5
:1018A0001AE7AC421ABF05EA1357AF4212E050EAFA
:1018B00041061CBF52EA4306BFE750EA41073046E3
:1018C00061461CBF41EA0551F0BD52EA430C08BF16
:1018D000C143F0BD00204FF4001616EB410F98BF36
:1018E00016EB430F08BF16EB410F24BFC14305E0C1
:1018F00016EB430F0CBF61464CEA0551F0BD0000EA
:10190000400D491840EA81200CD2490DA1F58061B3
:10191000491C40F0004005DBD1F11F0154BFC84015
:10192000C017704700207047014648B1B0FA80F1F7
:101930008840C91CC1F58461090501EBD02140052F
:1019400070470000B0B581EA030C0CF0004C40F287
:10195000FF7515EA11541DBF15EA1357AC42AF428B
:1019600039E0E41923EA455343F48013C90241F0F6
:10197000004141EA505EC7021100A7FB02020028A5
:101980004FF00000EEFB01204FF00001E3FB0721C8
:1019900018BF42F00102401800214941E3FB0E014B
:1019A000A4F580640F0302D252004041494154F132
:1019B00001046CDD470872F1004250F1000051EB68
:1019C0000451A1F580115CBF41EA0C01B0BD4CEAA5
:1019D00005510020B0BD05EA1357AC4214BFAF4219
:1019E00041E050EA410E1CBF52EA430E02E061465C
:1019F0000020B0BD24423C441BD15FEA070EF6D064
:101A0000090302BF01460020AEF1140EB1FA81F7BE
:101A1000AEEB070401FA07FE0C37C7F1200100FA0C
:101A200007F7C8404EEA000E23EA455343F48013FB
:101A3000A2E733F00043B3FA83F704BFB2FA82FEA1
:101A400077440B3FE41BB7F1200E2FBF02FA0EF3D1
:101A5000BB40C7F1200E22FA0EFE38BF43EA0E0348
:101A6000BA40641C82E750EA410E14BF52EA430EAA
:101A70006FF000014FF4001717EB430F8ABF1946B0
:101A800017EB410FB5E74CEA05510020B0BDD4F18A
:101A90000104B4F120070FDAC4F12007520828BF6F
:101AA00042F0010210FA07F501FA07F7E1BF2A43F5
:101AB000E0403843E1400FE0352C98DCC7F12004CA
:101AC00052EA400220FA07F218BF42F0010231FA4E
:101AD00007F0A1400A43002172F1004250F10000DA
:101AE00051EB0C01B0BD80B5FFF780FB006C02BD6F
:101AF000BBBBE1B1B2F5803F80F07E80022A1ED9E7
:101B00008C46B1FBF2F102FB11C31B0443EA104304
:101B1000B3FBF2FC02FB1C3380B240EA0343B3FB8D
:101B2000F2F002FB103240EA0C4000237047022A18
:101B300005D98446B0FBF2F002FB10C270474AB1EF
:101B400005D100F0010249085FEA30007047002229
:101B50000023704700F0A6B90B000200002100200E
:101B60007047904271EB030CF6D3B3F5803F2FD250
:101B7000F0B5B3FA83F7B1FA81F4A7F10F0E3D1B6C
:101B80005340CEF1200602FA0EF2F3415340B5F174
:101B90000F0746D80F3C2C444140C4F12006A0401A
:101BA000F1414140B1FBF3F603FB1611A2FB0645E0
:101BB000001BA94102D2761E8018594180EA010219
:101BC00021FA0EF362FA0EF200215A403046F0BDBF
:101BD00030B4B1FBF3FC03FB1C11A2FB0C45001B52
:101BE000A94103D2ACF1010C8018594130BC024626
:101BF0000B46604600217047B2F1807F65D3F0B597
:101C0000B2FA82F7B1FA81F4C7F10F063D1B22FA4E
:101C100006F307F1110EF24120355A40B5F10F07D6
:101C2000B8D94140C4F12006A040F1414140B1FB88
:101C3000F3FC03FB1C11A2FB0C45001BA94103D2C2
:101C4000BCF1010C801859410F2F12D30F3FC9036B
:101C500041EA5041B1FBF3F603FB1611A2FB064526
:101C6000D4EBC030A94102D2761E8018594146EA11
:101C7000CC3C07B34140C7F12006B840F141414098
:101C8000B1FBF3F603FB1611A2FB0645001BA941AD
:101C900002D2761E8018594180EA010221FA0EF321
:101CA000C7F1200462FA0EF20CFA07F05A402CFA3F
:101CB00004F13043F0BD80EA010221FA0EF3002165
:101CC00062FA0EF260465A40F0BD8C46B1FBF2F16A
:101CD00002FB11C31B0243EA1063B3FBF2FC02FBDD
:101CE0001C331B024CEA002043EA1063B3FBF2FCF6
:101CF00002FB1C331B024CEA002043EA1063B3FBD7
:101D0000F2FC02FB1C331B024CEA002043EA106386
:101D1000B3FBF2FC02FB1C324CEA002000237047AC
:101D2000012000F0C1B8000070B44FF0004591EA06
:101D3000030F7FF557AC6B40841A71EB030604D296
:101D40006E40001BB141121973414FF4001C1CEB93
:101D5000410F34BF7CEB430683E00C0DA4EB13561C
:101D6000362E00F37C80012E45EAC32341DC43EA92
:101D7000525312BFD20292025B08240545EAC121E8
:101D800041EA5051D2EBC020994125D407D1B0FA95
:101D900080F610FA06F162D00020203608E0B1FA91
:101DA00081F6B140C6F1200220FA02F21143B040A0
:101DB0004FEAF474B4EB465434F001064FEA74046D
:101DC0000AD8D6F50016760D04F00044F04061FA0A
:101DD00006F25040F1404840C00A40EA415021F02C
:101DE000004128BF5FEA500550F1000044EBD121CB
:101DF00035E0DB0A45EAC121C90AB6F120050EDD4E
:101E000042EA0242120CC5F1200603FA06F6EB4044
:101E100042EA06056D42984161F100010DE062FA67
:101E200006F5F240554063FA06FC82EA0C02F340E4
:101E30005A406D42904161EB030111F4801F05D1BE
:101E4000641E620502D06D004041494121F48011B9
:101E5000430875F1004350F1000041EB045170BCA0
:101E600070471CEB410F15D223F0004352EA4306A2
:101E70000BD04FEA4C0CBCEB410F04D80C0D661E86
:101E8000342EB7DDEBE7801A994150EA410608BFCE
:101E90000021E4E708BF1CEB430F28BF6FF00001EF
:101EA000DDE700007047000080B5AFF30080024A14
:101EB00011001820ABBEFBE72600020038B5040075
:101EC00001D1012032BD00F021F808B900F022F85C
:101ED00000F012F800F023F8FFE7416100F001F88C
:101EE00032BD2068C16841F40051C16000206860C3
:101EF00020216970A9707047242068702068C1682B
:101F000021F40051C160204600F02FBA04F13805D9
:101F10006878704700212970204600F0BFBA206819
:101F2000016921F4904101612068416921F02A0191
:101F3000704770B5044604F13805134668782028C8
:101F400031D109B1180001D1012070BD28780128D4
:101F500029D0012028702162A384E38400206860D6
:101F600021226A700FF27920226B9062226B0FF2AD
:101F70009D20D062226B0FF2DD2010630020266BC3
:101F800070632068021D206B00F07FFC21686FF0F9
:101F90004000086000222A702068416941F08001F9
:101FA0004161002070BD022070BD7CB5044604F183
:101FB00038051346A87820283ED109B1180001D170
:101FC000012076BD2878012836D001202870A16232
:101FD000A38500226A602220A8700026606B0FF2A1
:101FE00035228262606B0FF26522C262606B0FF273
:101FF000652202630A46606B46632668606B311D8A
:1020000000F043FC0020009021680A680092002242
:102010004B68009300982A70CB6843F48073CB60C0
:102020002068416941F0010141612068416941F046
:1020300040014161002076BD022076BD10B500F060
:1020400018F804D500F00FF808B100F007F80021E7
:10205000E185202084F83A00002010BD0021416372
:10206000606B00F04CBC416921F040014161606B44
:10207000704704462068C16821F49071C1602068EF
:102080004169490849004161206841694A06704731
:1020900038B5044625682968EA686B6911F00F00B5
:1020A00007D188065DD593065BD52046BDE8324052
:1020B00012E1D80702D412F4907F52D0C80705D598
:1020C000D50503D5E06B40F00100E063480705D576
:1020D000DD0703D5E06B40F00200E063880705D51B
:1020E000DD0703D5E06B40F00400E063080705D589
:1020F000DB0703D5E06B40F00800E063E06B0028ED
:102100006CD0880604D5910644BF204600F0E4F860
:1021100020684069E16B0A0701D440061BD52046C0
:1021200000F0C6F8206841694A060FD5FFF79BFF0B
:1021300060B10FF299114163606B00F0F9FB002868
:102140004CD0606B416BBDE8344008472046BDE889
:10215000324000F002BD204600F0FFFC0020E063AA
:1021600031BD08062AD5130628D594F83900212850
:1021700034D1A068B0F5805F206A0BD10188C1F32B
:102180000801696020690028206A0CBF811C411C7D
:10219000216203E0411C216200786860E08C401EEF
:1021A000E08480B2D0B92068C16821F08001C160AC
:1021B0002068C16841F04001C16031BD48060DD5BD
:1021C00051060BD5E86820F04000E860202184F833
:1021D00039102046BDE8324000F0C0BC31BD0000DF
:1021E000416A00680268930644BF084600F0B6BC26
:1021F0000020C8840868426922F0800242610868B1
:10220000C16841F04001C16070470000406A00F0C1
:10221000A6BC0000416A00680268930613D400203F
:10222000C8850868C26822F48072C2600868426982
:102230005208520042610868426922F0400242613D
:10224000202081F83A00084600F08ABC406A00F07D
:1022500088BC000038B5446A2068406904F139053B
:102260002978212906D1010604D50022E2842046DE
:1022700000F015F8216848696978222906D14006DE
:1022800004D50021E185204600F012F8E06B40F013
:102290001000E0632046BDE8324000F05EBC0168FB
:1022A000CA6822F0C002CA60202180F83910704745
:1022B0000168CA6822F49072CA6001684A695208CB
:1022C00052004A61202180F83A107047406A00218C
:1022D000C185C18400F041BC80B590F83A10222934
:1022E00041D18168B1F5805F12D101690368826ACA
:1022F0000029596805D1C1F308011180826A911C37
:1023000004E001F0FF011180826A511C81620FE03C
:1023100001690029816A04D14A1C826203685A68F3
:1023200005E04A1C826203685A6802F07F020A7064
:10233000C18D491EC18589B299B90168CA6822F068
:102340002002CA600168CA6822F48072CA6001680B
:102350004A69520852004A61202180F83A1000F080
:10236000FFFB002002BD022002BD2DE9F04704461C
:10237000642522681169E06821F44051014311612C
:102380001926D3683249A0680B402169034360696C
:102390000B430343D3605169A06921F440710143A9
:1023A0002C48516182420ED100F017FE074600F022
:1023B00014FE804600F011FE814600F00EFE8246BB
:1023C00000F00BFE0DE000F000FE074600F0FDFD02
:1023D000804600F0FAFD814600F0F7FD824600F0ED
:1023E000F4FD616889007743B7FBF1F36422B3FB26
:1023F000F2F206FB08F3B3FBF1F706FB09F3B3FBBC
:10240000F1FCAE46BCFBFEFE05FB1E773F013237FA
:102410006423B7FBF3F303F0F00303EB021306FBB3
:102420000AF74643B7FBF1F2B6FBF1F06421B0FBCB
:10243000F1F105FB11252D0132356420B5FBF0F0DB
:10244000216800F00F00C3188B60BDE8F087000022
:10245000F3E9FFFF0038014080B5A148A14900F031
:102460000BF800B116E001BD80B59F489F4900F010
:1024700003F800B10EE001BD01604FF416520023D5
:102480000C2142608360C360036141618361C36169
:10249000FFF714BDBDE8014000F014BE2DE9F8417E
:1024A00085B004466846002100220023002580E80C
:1024B0002E0021688B4A8E4D8E4FDFF83C828F486C
:1024C00091424FF480564ED1016841F48041016041
:1024D0000323026802F48042049200F0AFF84FF444
:1024E000007100F0B1F803936946404600F0ECFD3E
:1024F00000214FF4806201910291009269464046AA
:1025000000F0E2FD05F11400386000218020F86041
:102510007960B96039617961B961FE61384600F06E
:1025200087F908B100F0CEFD102000216763B86480
:10253000F964802038657965B965F9657C627D64E8
:102540003E6607F1440000F073F908B100F0BAFDEF
:1025500007F144002063BC6601220221252000F01F
:10256000C1FE252065E0614A914264D1416841F491
:1025700000314160416801F40031049100F05EF8DF
:10258000042100F061F8032103914046694600F000
:102590009BFD082000210090019102914046694670
:1025A00000F092FD07F1880805F13C00C8F8000032
:1025B000102180200022C8F80C00C8F80410C8F8C8
:1025C0000820C8F81020C8F81420C8F81820C8F847
:1025D0001C60404600F02CF908B100F073FD05F1D5
:1025E00028000021C4F83080C8F84400C8F848101A
:1025F0000020C8F84C008021C8F85400C8F85800E2
:10260000C8F85C00C8F8501007F1CC05C8F82440A1
:10261000C8F86060284600F00BF908B100F052FDE0
:102620006563C8F8684002220221262000F05AFEA5
:10263000262000F074FE06B0BDE8F081049902681F
:1026400042F0040202607047006800F00400049049
:10265000022204980091019270471CB5044620683C
:10266000C36843F40053C3602046FFF79EFC002379
:10267000009321680A6800924B6800930098CA682A
:1026800042F01002CA6013BD0EB430B5010002D092
:10269000012804D020E0124C1248194D02E0124CDF
:1026A0001248184D20600C210398606000220698A3
:1026B000A0600498E060059820616161A261E26118
:1026C0002046FFF7FBFB08B100F0FCFC69684FF403
:1026D00080722046FFF7C1FF30BC5DF810FB0000A0
:1026E000E80A002000380140280B00200044004088
:1026F000440002400005002000080140181002407C
:102700000C0000201C0000207FB56B460022002436
:102710000025002683E87400C0F30B04072C24D89E
:10272000DFE804F00424282B2F3235384FF4966369
:102730000093020B12F003024FF4805303D0022ADD
:1027400030D02AD37FBD02950395800B02D001289B
:102750002CD07FBD0190029800B10196009A0A60CA
:102760008860019848600398C8607FBD4FF4166286
:102770000092DEE74FF49653DAE74FF416540094D4
:10278000D7E74FF49643D3E74FF41644F7E74FF4F7
:102790006143CDE74FF4E134F1E74FF4C0650295B2
:1027A0000393D2E74FF480640294F9E74FF40050AA
:1027B000D0E730B5B0F5966F15D0B0F5166F14D0E0
:1027C000B0F5965F13D0B0F5165F12D0B0F5964F06
:1027D00011D0B0F5164F10D0B0F5614F0FD0B0F555
:1027E000E13F0ED022E000240CE001240AE00224A4
:1027F00008E0032406E0042404E0052402E00624A3
:1028000000E00724150007D0B2F5806F0BD0B2F5B9
:10281000C06F0BD104F58054B1F5005F08BF04F51B
:102820008044A0B230BD04F50054F5E7002030BD6F
:1028300030B508B9012030BD0468DFF8D812091995
:10284000142200F13803B1FBF2F292009A600222E6
:10285000DFF8C412596080F8212025684168826839
:102860006FF30D150D43C168154302690D434169AE
:10287000154382690D43C16915430D43256000244A
:102880001C6000F09FF8002030BDF8B5044600251C
:1028900094F82000012801D10220F2BD94F82160B3
:1028A0000120012E84F8200024D1022004F12C06FE
:1028B00084F82100F560206807687F087F000760C2
:1028C000204600F039F92168306820B10A6842F0EA
:1028D0000E020A6008E0086820F004000860206822
:1028E000016841F00A0101602068016841F00101BE
:1028F000016002E084F8205002252846F2BD10B5A0
:1029000001680A6822F00E020A6000F13C020B68BE
:102910005B085B000B600124516812688C405460B6
:102920000123002180F8213080F82010002010BD04
:1029300038B590F821200024022A00F1340103D098
:102940000420486001243BE00268136823F00E0372
:1029500013600268DFF8C43115686D086D001560FA
:1029600002689A4208BF012222D0DFF8B4319A42AD
:1029700008BF10221CD0DFF8AC319A4208BF4FF4D8
:10298000807215D0DFF8A0319A4208BF4FF4805210
:102990000ED0DFF898319A4208BF4FF4803207D04A
:1029A000DFF88C319A420CBF4FF480124FF08072E6
:1029B000DFF880311A6000F005F8096801B1884736
:1029C000204632BD012280F8212080F82040704747
:1029D0002DE9F84F00F1280204275169544BD1F832
:1029E00000E0056853492E68D2F818A04F4CDFF874
:1029F0003881DFF83091DFF828B1DFF820C107FA1D
:102A00000AF71EEA070F2DD077072BD52E68B606DA
:102A100003D42E6826F004062E600568654508BFBD
:102A2000042318D05D4508BF402314D04D4508BF8E
:102A30004FF480630FD0454508BF4FF480430AD060
:102A4000A54208BF4FF4802305D09D420CBF4FF430
:102A500080034FF080630B605168002958D0BDE8B7
:102A6000F44F0847022707FA0AF71EEA070F32D089
:102A7000B70730D52E68B60606D42E6826F00A06AB
:102A80002E60012580F821500568654508BF0223A6
:102A900018D05D4508BF202314D04D4508BF4FF422
:102AA00000730FD0454508BF4FF400530AD0A5422C
:102AB00008BF4FF4003305D09D420CBF4FF4001304
:102AC0004FF000730B60002180F820101168F9B1FD
:102AD000BDE8F44F0847082101FA0AF11EEA010F88
:102AE00016D0310714D52B6823F00E032B60012478
:102AF000916953698C405C600121116180F821105B
:102B0000002180F82010916811B1BDE8F44F08470A
:102B1000BDE8F18FF8FFFDBF000002400800024051
:102B20001C000240300002404400024058000240B5
:102B30006C0002400400024070B5046CC66B0125B5
:102B4000A5407560046863604068102802D1A260E7
:102B5000E16070BDA160E26070BD70477047704772
:102B6000704770472DE9F8430746DFF884543878FA
:102B7000C1074DD5686800F00C00042807D06868CC
:102B800000F00C0008280AD16868C10307D528683E
:102B900081033DD5786800283AD1012055E1786855
:102BA000B0F5803F04D1286840F48030286014E0FC
:102BB00008B928680AE0B0F5A02F286806D140F4CB
:102BC00080202860296841F4803105E020F48030BD
:102BD0002860296821F480212960786860B100F0BC
:102BE000D5FB04462868810312D400F0CFFB001BFC
:102BF0006528F7D3032028E100F0C8FB04462868C5
:102C0000810305D500F0C2FB001B6528F7D3F1E76F
:102C10003878DFF8E863810718D5686810F00C0F82
:102C200007D0686800F00C00082825D16868C10347
:102C300022D42868810702D538690128ADD12968D6
:102C4000786921F0F80141EAC00129603978080764
:102C500046D5B869DFF8A81300286CD001220A60B5
:102C600000F094FB0446686A81072AD400F08EFBCA
:102C7000001B0228F7D9BDE73869A8B101213160EE
:102C800000F084FB04462868810705D400F07EFB31
:102C9000001B0228F7D9ADE72868796920F0F80011
:102CA00040EAC1002860D1E7306000F06FFB0446C5
:102CB00029688807CAD500F069FB001B0228F7D9EC
:102CC00098E7DFF830030168C9084FF47A72B1FB66
:102CD000F2F2009200BF0098411E00280091F9D145
:102CE000387841076ED5E8690024C10009D4E86945
:102CF00040F08050E8610124E86900F080500090C5
:102D00000098DFF80083D8F80000C10520D4D8F877
:102D1000000040F48070C8F8000000F037FB8146E6
:102D2000D8F80000C10513D400F030FBA0EB090077
:102D30006528F5D35EE7086000F028FB0446686A62
:102D40008107CDD500F022FB001B0228F7D951E7FF
:102D5000F868012808D008B9286A09E00528286A17
:102D600006D140F004002862286A40F0010005E026
:102D7000400840002862286A20F00400286241F2DE
:102D80008938F86860B100F001FB8146286A810744
:102D900013D400F0FBFAA0EB09004045F6D329E775
:102DA00000F0F4FA8146286A810706D500F0EEFAB1
:102DB000A0EB09004045F6D31CE71CB1E86920F000
:102DC0008050E861F86900283ED0696801F00C0184
:102DD00008293FF4E2AE02282AD100F038F8044670
:102DE0002868810105D500F0D1FA001B0228F7D927
:102DF00000E7386AB0F5803F05D16968B86821F40A
:102E00000031014369606A68386A796A22F4741291
:102E100002430A436A60012000F01AF80446286859
:102E2000810111D400F0B2FA001B0228F7D9E1E6C3
:102E300000F00DF804462868810105D500F0A6FAD7
:102E4000001B0228F7D9D5E60020BDE8F283002058
:102E5000306600F09BBA2DE9F8436B4F05463868A1
:102E6000894600F00700484502D200F086F85FD19D
:102E700028685F4C810712D5400703D5616841F48B
:102E8000E06161602878010703D5606840F4605014
:102E900060606168A86821F0F001014361602978F1
:102EA000C8073DD56868012802D121688A0303E07C
:102EB0000228216802D18A0102D439E08A0737D575
:102EC0006168890840EA8100606041F2893800F059
:102ED0005DFA0646686801280BD1606800F00C00B6
:102EE00004281DD000F052FA801B4045F5D3032082
:102EF00041E002280AD1606800F00C0008280FD0D9
:102F000000F044FA801B4045F5D3F0E7606810F00C
:102F10000C0F05D000F03AFA801B4045F6D3E6E7E7
:102F2000386800F00700814504D200F026F801D08F
:102F3000012020E02878410705D56268E86822F47E
:102F4000E062024362602978080706D56168286953
:102F500021F4605141EAC001616000F019F8626833
:102F60002A49244BC2F30312895CC8401860002030
:102F700000F012FA0020BDE8F2833968C90849EA76
:102F8000C1013960386800F007004845704700000B
:102F90001F4919480A6802F00C03082B00D070473B
:102FA00010B500BF1DA4C2F38343D203E35C08D570
:102FB000096858431DA3C1F340415A5CB0FBF2F0CD
:102FC00010BD18461349484310BD0A48104A00680E
:102FD00013681149C3F3022206E006480C4A006850
:102FE00013680D49C3F3C222895CC84070470000D2
:102FF000001002407800002000127A0000004242D7
:10300000800442420070004000200240F85E000848
:103010000410024000093D00C85F000802030405D7
:10302000060708090A0B0C0D0E0F1010010280B5DF
:1030300000F0D2F900F01CF800F0E0F900F06EFAB0
:1030400000F09CFA00F00EFB00F017FBFFF704FA0B
:10305000FFF70AFA00F09EFB062000F009FC0028AA
:10306000FAD10521062000F00AFC00F01BFCF3E772
:1030700000B58FB0282105A800F036FC1421684661
:1030800000F032FC02210122059109921021022256
:103090000A910C9200214FF460120D910E9205A836
:1030A000FFF760FD022101910F204FF48061009035
:1030B000002203910292049202216846FFF7CBFEA0
:1030C0000FB000BD704700002DE9F8478246002090
:1030D0008646694A694BDFF8A8814FF00F09012441
:1030E0000F6804FA0EF63740B74240F0A6804C68ED
:1030F0003CB3012C1AD0022C1DD0032C2ED0112C45
:1031000016D0122C1AD05F4DAC421CBF5E4DAC42A3
:1031100017D05E4DAC421CBF5D4DAC4211D05D4D31
:10312000AC421CBF5C4DAC420BD018E0C86816E046
:10313000C868001D13E0C868083010E0C8680C308B
:103140000DE0886808B9042009E0012819BF0820AB
:10315000CAF814600820CAF8106000E00020B7F533
:10316000807F03D2D4464FEA8E0404E0AEF1080417
:103170000AF1040CA400DCF8005009FA04F6B54387
:1031800000FA04F42C43CCF800404C68E40054D519
:10319000D8F8004044F00104C8F800404FEA9E0C03
:1031A000D8F8004004F001040094009C53F82C600F
:1031B0004FEA8E0404F00C0409FA04F526EA05052A
:1031C000364EB24508BF00260ED0354EB24508BF78
:1031D000012609D0334EB24508BF022604D0324E34
:1031E000B2450CBF0326042606FA04F42C4343F828
:1031F0002C40FE434C68E50303D514683C4314603F
:1032000002E01568354015604C68A50354684CBF52
:103210003C43344054604C68E50294684CBF3C43E6
:10322000344094604C68A50203D5D4682743D76026
:1032300003E0D76806EA0704D4600EF1010EBEF180
:103240000F0F7FF64CAFBDE8F1878068084018BFCC
:103250000120C0B2704702B9090401617047C26819
:103260005140C1607047114A136803421CBF10608F
:1032700000F05DBB70470000000401400800014001
:103280001810024000001110000012100000211060
:103290000000221000003110000032100008014030
:1032A000000C0140001001400014014014040140D2
:1032B0000901020006D52F4A00F00F00104400F863
:1032C000041C70472C4B195470472C4B19684FF64F
:1032D000FF020002114000F4E0600843284908435F
:1032E0001860704770B5254B1C68C4F30223012495
:1032F000C3F10705052D2EBF0F2504FA05F56D1E38
:103300001E1D072E34BF0023DB1E2940994004FAFE
:1033100003F3BDE870405B1E1A401143C8E7012269
:1033200000F01F01174BFFE78A40400943F82020B7
:10333000704710B5401EB0F1807F01D3012010BD51
:10334000114C60600F214FF0FF30FFF7B1FF0021FB
:10335000A16007202060002010BD04280A4904D184
:10336000086840F00400086070470A6822F0040210
:103370000A60704718ED00E000E400E00CED00E0AA
:103380000000FA0500E100E010E000E001484068BC
:10339000704700BF0000002038B50D4D0D4B2A7856
:1033A00004464FF47A711868B1FBF2F2B0FBF2F008
:1033B000FFF7BFFF50B9102C08D2002221464FF072
:1033C000FF30FFF78FFFAC60002032BD012032BD1F
:1033D000000000207800002080B50748016841F017
:1033E000100101600320FFF770FF0020FFF7D4FFFA
:1033F00000F0C4FA002002BD0020024078B585B07C
:103400006846002100220023002480E81E00364880
:10341000364E0168364C374D41F0100101600268AC
:1034200002F0100204920499026842F00402026061
:10343000036803F0040304930499026842F008024D
:1034400002600122006800F0080004904FF400516F
:10345000049B3046FFF7FFFE002273212046FFF752
:10346000FAFE00224FF480512846FFF7F4FE4FF495
:10347000005100F04AF83046FFF726FE7321009114
:103480000122019200210291032203926946204603
:10349000FFF71AFE49F6801000F030F82046FFF7DB
:1034A00013FE40F63B4000F029F82846FFF70CFEDB
:1034B0004FF4805100F029F82846FFF705FE4FF43D
:1034C00070700D49009001910022029269462846D1
:1034D000FFF7FAFD032201211720FFF703FF172052
:1034E000FFF71DFF06B070BD18100240001001402C
:1034F00000080140000C0140000011100021009064
:1035000001910122029269467047009101220192C5
:1035100000210291022203926946704780B5164845
:10352000016841F0010101600122006800F0010022
:103530000090012100980E20FFF7D4FE0E20FFF727
:10354000EEFE012201210F20FFF7CCFE0F20FFF736
:10355000E6FE022201211020FFF7C4FE1020FFF733
:10356000DEFE022201211120FFF7BCFEBDE8024071
:103570001120FFF7D4BE00BF1410024080B52E48C2
:103580002E4901604FF4827230214260C1610023F4
:103590004FF400720A218360C3600361436182615A
:1035A000036243628362C16200F00CFA18B1BDE8A5
:1035B0000140FFF787BD01BD30B585B069460022E7
:1035C00000230024002581E83C0000681B4A90424B
:1035D0002FD11B481B4C416841F480414160416838
:1035E00001F4804104910499026842F008020260EB
:1035F0004FF42041006800F0080004900222049873
:10360000009101920321039120466946FFF75CFD7A
:103610004FF4804200920195029569462046FFF7DB
:1036200053FD022203212420FFF75CFE2420FFF734
:1036300076FE05B030BD0000100A002000380040C2
:1036400018100240000C014002B582B04FF47A71AC
:103650000091012301AA02A900F0F4F99DF80400E9
:103660000EBD000010B586B000F030F8334C344980
:103670006060216040F2E73008E010B586B000F0ED
:1036800025F8304C3049606021606320E060A26022
:103690002261A261204600F08DFB08B1FFF712FD08
:1036A0004FF48050029002A9204600F051FC08B16E
:1036B000FFF708FD0021009101912046694600F0C6
:1036C00021FD08B1FFF7FEFC06B010BD02A80021E5
:1036D00000220023002480E81E00CDE900123F20D4
:1036E000704780B50068164A184990420FD10868A3
:1036F00040F0020008600022096801F00201009118
:10370000032100981D20FFF7EDFD1D2011E00E4A5A
:10371000904212D1086840F0040008600122096854
:1037200001F004010091032100981E20FFF7DAFD4B
:103730001E20BDE80240FFF7F2BD01BD680A00206F
:1037400000040040A80A0020000800401C100240AD
:1037500001460A22304800F00EBD38B504462E4D11
:103760000A222146284600F071FD2378012B10D053
:103770000120207000216170E1602161A160284674
:1037800021464FF4165262600A22BDE8384000F02C
:10379000F2BC31BD1CB5402000F066FD1F48204C36
:1037A00000F015FB1F4800F012FB1F4841681F483E
:1037B0004FF48072FEF751FF1D4841681D484FF4D9
:1037C0008072FEF74AFF2046FFF7C7FF1A4800F055
:1037D0008CFD201D83B0D0E90023CDE90023D0E982
:1037E0000223CDE9022300200EBCFEF74DFF00F0BE
:1037F00091FE0100114908BF0120087000F0C7FECA
:1038000001000F4908BF01200870BDE816400D48AF
:1038100000F0E2BE0000000000FC0008680A002082
:10382000180C0020A80A00200C000020E80A002044
:103830001C000020280B002030000020FC0000208D
:10384000FD000020480C00200021154800EBC102BB
:103850001378012B08D150880128506802D118B183
:10386000401E00E0401C5060491C0729EDDB7047FA
:1038700000BF0B4901EBC000406880B27047084AA6
:1038800002EBC0000123438041600370704704498C
:1038900001EBC000012242804260002202707047AA
:1038A000680B002038B50D4C0EA0617850F821004F
:1038B0000B4D60600021217020786168C140CA070B
:1038C00044BF55F8200080472078401C2070C0B2CB
:1038D0000528F1D30020607031BD0000380C0020B5
:1038E000B45D00080F000000002200F08BBE000055
:1038F00038B504461F4D402100F010F8207080219B
:1039000000F00CF860704FF4807100F007F8A070C0
:103910004FF4007100F002F8E07031BD2846FFF767
:1039200094BC00EB41008188491C8180704740288D
:10393000114A08D0802808D0B0F5807F07D0B0F5B4
:10394000007F06D07047002104E0012102E002213F
:1039500000E003211046E4E780B50320FFF788FF6D
:1039600038B9C8210320FFF78AFFBDE802400248AA
:10397000BEE701BD000C01402C0C002080B50F48B3
:10398000016841F001010160026802F00102009249
:103990000099426842F080524260406800F08050D6
:1039A000009000980520FFF790FC0548016821F081
:1039B000E06141F00071016001BD00BF18100240DC
:1039C0000400014010B5040001D1012010BD002108
:1039D000A16294F8510010B92046FFF7EDFD0220D6
:1039E00084F851002068016821F04001016062689C
:1039F000A168E06823680A432169024360690A43B9
:103A0000A169024301F40071E0690A43216A02439B
:103A1000A06A0A4302431A60A169606A2268090C1D
:103A200001F00401014351602168E06A08612068E7
:103A3000C16921F40061C16100206065012184F841
:103A4000511010BD2DE9F84F074607F1500601242B
:103A5000307800250128884691469A4608BF022002
:103A600000F0CA803470FFF791FC71780129834619
:103A700009D07868B0F5827F02BFB86800280429B1
:103A800001D00225B3E0B8F1000F1CBFB9F1000F5F
:103A9000BAF1000F01D10125A9E07078012804BF17
:103AA000052171707560C7F83890A7F83EA0A7F897
:103AB0003CA0C7F83080A7F836A0A7F834A03D6432
:103AC0007D6438680268510603D4026842F04002FF
:103AD0000260F868DDF828A0B0F5006F786835D18D
:103AE00000281CBFF88E012806D1386838F8021B60
:103AF000C160F98E481EF886F88E002804BFF88F42
:103B0000002859D0002C1CBFF88E00280AD0386835
:103B100081688A0706D538F8021BC1600024F88E38
:103B2000411EF986F88F38B100F068F804D5C068F6
:103B300029F8020B00F066F81AF1010FDCD0FFF74C
:103B400025FCA0EB0B005045D6D33EE000281CBF5F
:103B5000F88E012806D1386818F8011B0173F98E18
:103B6000481EF886F88E002804BFF88F002823D05E
:103B7000002C1CBFF88E00280AD0386881688A079C
:103B800006D518F8011B01730024F88E411EF98632
:103B9000F88F38B100F032F804D5C06809F8010B8D
:103BA00000F030F81AF1010FDCD0FFF7EFFBA0EBCB
:103BB0000B005045D6D308E0CDF800B053460122A3
:103BC0000221384600F0A0F808B103250FE05A465C
:103BD0005146384600F0DEF818B12020012570600B
:103BE00005E0B86818B90095396800F080F801213F
:103BF0007170002030702846BDE8F28F3868816807
:103C0000CA0770470124F98F4A1EFA877047016876
:103C100021F04001016070477CB5044621684A6884
:103C20008B6803F04100012806D1500604D5216CB1
:103C30002046BDE87C400847980706D5150604D500
:103C4000616C2046BDE87C40084713F0600F4DD002
:103C500090064BD55D060ED594F8510003283BD055
:103C6000606D40F00400606500250095CE68009608
:103C70008D68009500989B060CD5606D40F00100A2
:103C80006065002300938D680095086820F040006F
:103C900008600099606D48B32068416821F0E00138
:103CA0004160012012F0030F84F8510019D0206800
:103CB0000FF249054168890889004160E06C18B13C
:103CC0004563E06CFEF734FEA06C78B14563A06CF0
:103CD000BDE87640FEF72CBE0020009000F007F80B
:103CE00073BD2046BDE8764000F0A5BC73BDCA6830
:103CF000009289680091009870470000406A002196
:103D0000C187C18600F097BC2DE9F041069F0546AA
:103D10000E4690461C46286881683140B1420CBF6F
:103D200001200020404532D014F1010FF3D024B11E
:103D3000FFF72CFBC01BA042EDD32868416821F09F
:103D4000E00141606868B0F5827F09D1A868B0F5EC
:103D5000004F18BFB0F5806F02D12868FFF757FFFA
:103D6000A86AB0F5005F0AD129680A684DF6FF70AD
:103D700002400A602868016841F40051016005F1C1
:103D800050000121417000220270032000E0002059
:103D9000BDE8F0811CB500920B460446002280214C
:103DA000FFF7B2FF20B1606D40F020006065032096
:103DB00016BD000038B5040001D1012032BD00F06D
:103DC0001FF818B900F018F8FFF78BFC0AE000683C
:103DD000C16841F00101C160026842F00102026065
:103DE0000020704702206870211D206800F01BF938
:103DF00001206870002032BD0021297020467047E4
:103E000004F13C056878704710B5044620680169E4
:103E10008A0715D5C1688A0712D56FF002010161C2
:103E200001222277806910F0030F204602D000F0B3
:103E300003FC03E000F001FC00F087F8002020778D
:103E4000206801694A0715D5C1684A0712D56FF085
:103E50000401016102222277806910F4407F20462C
:103E600002D000F0E9FB03E000F0E7FB00F06DF8A2
:103E700000202077206801690A0715D5C1680A0764
:103E800012D56FF00801016104222277C06910F099
:103E9000030F204602D000F0CFFB03E000F0CDFB83
:103EA00000F053F80020207720680169CA0615D574
:103EB000C168CA0612D56FF010010161082222778D
:103EC000C06910F4407F204602D000F0B5FB03E04B
:103ED00000F0B3FB00F039F800202077206801697A
:103EE000CA0708D5C168CA0705D56FF0010101618D
:103EF000204600F0A3FB206801690A0608D5C168C6
:103F00000A0605D56FF080010161204600F097FB9D
:103F1000206801694A0608D5C1684A0605D56FF0D0
:103F200040010161204600F08BFB206801698A0690
:103F30000AD5C1688A0607D56FF0200101612046C5
:103F4000BDE8104000F07DBB10BD204600F07ABBFC
:103F500038B500F05CF801D1022032BD012020709C
:103F600002226270DFF81C012A68936803409360A4
:103F70000A68002A37D0102A37D0202A37D0302AB2
:103F800037D0402A2BD0502A1ED0602A20D0702A49
:103F90000BD0B2F5805F03D0B2F5005F0CD02CE0FF
:103FA00028688168C908C9000CE000F02BF828686F
:103FB000816841F0770105E000F024F82868816805
:103FC00041F48041816018E000F018F8502111E0C0
:103FD000CA684968286800F06EF860210AE000F0BD
:103FE0000DF8402106E0002104E0102102E020212C
:103FF00000E03021286800F070F80EE0CA684968D7
:10400000286849E0CB684A68896828686DE00546F9
:1040100005F13C04207801287047012060700021E0
:104020002170002032BD70B5174E0368174C184D33
:10403000B04218BFB0F1804F03D0A84218BFA042D1
:1040400009D14A6823F070031343B0421CBFB0F19A
:10405000804FA84201D0A04203D1CA6823F4407324
:1040600013434A6923F0800313430360B0428B6813
:10407000C3620A68826202D10969064A116001239B
:10408000436170BD8800FFFF002C01400008004024
:1040900000040040302C014010B5036A046A640833
:1040A0006400046223F00A03846924F0F00444EA03
:1040B0000214846123E010B5036A23F01003036245
:1040C0008369046A23F4704343EA023324F0A004B2
:1040D000836144EA0114046210BD826822F0700218
:1040E000114341F007018160704710B5846824F4E2
:1040F0007F442143114341EA0321816010BD1943EC
:10410000016210BD30B500F13C031A78012A01D1DB
:10411000022030BD01221A7002245C7002685468CB
:1041200024F070045460046865680A68154365608B
:104130000268946824F08004946002689468486877
:1041400004439460012159700020187030BD0000B4
:10415000F8B504460D461646002708E035F810204D
:1041600000232146012000F06FFAA41C7F1CB8B286
:10417000B042F3D3F1BD2DE9F84F804608F17847FE
:10418000B7F5803F894601D3BDE8F18F1446BD0ADB
:10419000C7F3480600F093FAC6F50077BFB2A7420E
:1041A000A8BF2746A80200F1006ADFF898B04FF4D4
:1041B00000725946504600F049F800204FF6FF7251
:1041C00005E081193BF8111091420AD1401CB84218
:1041D000F7DB4CF2503000F095FA3A46494640463B
:1041E00019E0504600F0E4FA4CF2503000F08AFA40
:1041F0001548016821F002010160002005E039F84E
:10420000101032182BF81210401CB842F7DB4FF494
:10421000007259465046FFF79BFFA0B2B84203D147
:10422000BDE8F14F00F05BBA09EB470908EB47081E
:10423000E41B6D1C0026A7B2B7F5007FC8BF4FF482
:104240000077AFE7000100201020024030B50023C6
:1042500005E030F8024B9DB221F815405B1C9CB282
:104260009442F6D330BD000010B504460420FFF799
:1042700074F80C490C6010BD30B50B4B094D1C682F
:1042800029684843596800225D688D42FCD002D2FB
:104290008A18521B02E0A218521B8A188242294631
:1042A000F2D330BD400C002014E000E038B50446E5
:1042B000002504E04FF47A70FFF7DEFF6D1CA54285
:1042C000F8D331BD30B50021002518224A430244FD
:1042D0007E4B7F4C1360491C7E4B556001299560D5
:1042E000D56014615361F0DD30BD80B500680168B0
:1042F0000A6842F040020A60FF21FFF7A5F9012297
:104300004FF480517448FEF7A6FFBDE802407348A1
:10431000D8E73EB504460D46032102A8FFF7E4FAAC
:10432000032101A8FFF7E0FAC5F3800141F006017F
:104330008DF808104FF47A70A90100908DF80910DB
:104340000323206801AA02A9FFF77CFB01A841789A
:1043500001F00F0141709DF8060040EA012004EBD6
:104360004501888037BDF8B5182359434518296899
:104370002869144600F02EFA064668696E603146D8
:1043800000F028FA0146304600F096FAAF6806467B
:10439000EE602046394600F00DFB314600F04AFB46
:1043A000394600F017FAA8604FF07E50E96800F037
:1043B00001FB696800F03EFB2860A868F2BD2DE9AA
:1043C000FC4B05460020FFF753FA002875D1052164
:1043D000FFF755FA0024404E002200F070F8E1B2D9
:1043E0002846FFF796FF012200F069F81E20FFF72C
:1043F00043FF641C012CEFDDDFF8E4B0394F00957A
:104400000024009800EB4405A88800F07FFB0246DA
:10441000E1B23248FFF7A7FF00F086FBA8800099C1
:10442000A88801EB840518B92F48A8602F6141E0E6
:1044300000F06CFB00F08EFB00225B46FDF782FA79
:1044400000222A4BFDF77EFA00224FF08043FDF751
:1044500079FA00F0A3FB0646AE60314600F0EAFAB6
:1044600000F078FB224A234BFDF76CFA8046894620
:10447000304600F06FFB204A204BFDF763FA4246BE
:104480004B46FDF751FC1E4A1E4BFDF74DFC00F05C
:1044900085FBA8601C4900F00FFA394600F0B2FB1A
:1044A000286138BF2F612869184900F0BDFB9CBF07
:1044B00006482861641C012CA3DDBDE8F38B4FF492
:1044C00080513046FEF7C7BE114878E70AD7A33CB3
:1044D0006F12833A0C020B3F000C0140A00B00202E
:1044E000000004406F12833BDBF97E3F0000303F49
:1044F0008D2982EFE2361A3FE36A8638D6C5F03F4F
:10450000113923D52B65693F000079430BD7A33CB4
:10451000300000202DE9F0472B4C4FF4805100F083
:1045200057F805464FF4006100F052F845EA40059F
:104530004FF4807100F04CF80646244F4FF40061B0
:104540003846FEF782FE80464FF480613846FEF71B
:104550007CFE814602213846FEF777FE824645EA18
:1045600086050121384645EAC805FEF76EFE45EA94
:10457000091545EA4A1545EA8015802100F028F81A
:1045800045EAC015EDB2ED43E8B2BDE8F08738B5B5
:104590000E4C202100F01CF80546102100F018F800
:1045A00045EA4005082100F013F845EA80054FF47C
:1045B00000410548FEF749FE45EAC00545F0F00513
:1045C000EDB2ED43E8B232BD00080140000C0140FD
:1045D0002046FEF73ABE00000078094B002814BFC1
:1045E0000122002202211846FEF735BE042906DA10
:1045F00029B9034802B101220221FEF72CBE7047FF
:104600000008014000B500BF1300964694461039DB
:1046100028BFA0E80C50FAD85FEA417C28BF0CC044
:1046200048BF40F8042BC90728BF20F8022B48BF19
:1046300000F8012B00BD7047704770477047704706
:1046400070477047704700002DE9F84F524E0746FB
:10465000307E01288B461446994608BF02202CD094
:10466000012030764CF2503A504600F04BF80100F1
:1046700021D1012F08BF012103D0022F0CBF02213D
:1046800004210025454F884600E06D1C454512DA9F
:10469000204649462A0100F0D9FA81B20BEB4500C9
:1046A00000F025F8504600F02DF839684908490017
:1046B00002003960E9D000213176BDE8F28F394936
:1046C000CA680020130600D4704710B5364A374C2C
:1046D0000A600C60C9680A0648BF012010BD2F4857
:1046E000016841F08001FFE701600020704710B5CC
:1046F000294B0022DA61294A146844F0010414604D
:10470000018010BD70B50446FEF740FE0646244DFC
:104710002868C1070AD514F1010FF9D024B1FEF7BA
:1047200035FE801B8442F3D2032070BD28688106C9
:1047300044BF202028602968C80605D42969C80715
:1047400002D42968480703D500F004F8012070BDA1
:10475000002070BD10B5124A0F4913680020DC0616
:1047600004D5C86940F00200C861102013685C07D6
:1047700005D5CB6943F00103CB6140F00400136918
:10478000DC0707D5CB6943F00403CB611169490805
:1047900049001161106010BDF80B0020102002408C
:1047A0000C2002400420024023016745AB89EFCD75
:1047B000064A0021D16106490B6843F002030B60F1
:1047C0004860086840F0400008607047F80B00201F
:1047D0001020024090EA010F40F1F28081F0004188
:1047E000431A4FF000423EBF5340C01AC91800BFE1
:1047F000D3095FEAD05C13EB400F34BFB3EB410F3A
:1048000040E07CEBD1530CD342EA012122D8D1EB1A
:10481000402009D3400A28BF5FEA500140EBCC504A
:104820007047401A15D04002B0FA80F2521C9040F6
:10483000400A4FEA3C23B3EB026384BF00EB7300F2
:1048400007E040F400001A16DB07C2F10102D04075
:1048500018437047182BFCDC31FA03F202FA03F319
:10486000591A38BF42F00102D2EB40203CBF400051
:10487000ACF1010C5FEACC5CC20572F100414CEB7B
:104880005020704713EB400F0FD2C94209D0ACEB58
:10489000D153022B03DB4902172BDDDD7047914317
:1048A000401AC042D5D10020704713EB410FD0D33E
:1048B0006FF000007047000010B5FF2313EAD054DA
:1048C0001DBF13EAD1529C429A4239E0A41ADA077A
:1048D00080EA0103134042EA012142EA0020421A21
:1048E0003CBF641E01EB4202090AB2FBF1FE01FB70
:1048F0001E221202B2FBF1F001FB10226EF30F2018
:104900001202B2FBF1FE4EEA00207F3406DDFE2CDF
:1049100024DA53EA500050EBC45010BDD4F1020425
:1049200001FB1E2240F08071192C1DDC21FA04F0DD
:10493000C4F12004A140114371F10042584110BD5F
:104940009C421ABF03EAD1529A420FE080EA010E5C
:104950000EF00043400004D0490016D143F0FF4060
:1049600010BD490008BFD343180010BD9C4205D1BB
:10497000D21AF7D001F00041484010BD4A0212BFE0
:104980000846484000F0004010BD4AB90902B1FA9B
:1049900081F2914044B1A418C00140F000409EE76C
:1049A000C90141F0004152420002B0FA80F4A04037
:1049B000141B94E790EA010F7FF512AF81F00041DC
:1049C000421A3CBF801A89184FF0004CC0F3C752FE
:1049D000FF2A24D0C1F3C75313B3D21AD2F119035B
:1049E00027DD4CEA01214CFA03F321EA0303D1400D
:1049F000C20D4CEA0020401834BF20EA0C004CEAFB
:104A00005000D20553EA006373EB0C0C52EB1020FC
:104A1000420012F1807F38BF7047C00DC00570475B
:104A2000490212BF9A4200EB5120F8E7D2F1170376
:104A3000D9D57047FF2212EAD05C1DBF12EAD153CC
:104A4000944593422BE09C44D30780EA01021A402C
:104A500043EA002043EA0121A1FB0030C04238BFF5
:104A600040007CF17F010BDBFE294ADA5B0842EA59
:104A7000C15153EA006373F1004C51EB10207047B1
:104A8000D1F1080CDCF120012FDB5B0810FA01F1F9
:104A90000B4320FA0CF073F10041504170479445EC
:104AA0001CBF02EAD153934280EA010202F00042A5
:104AB0001DD0400019D0490017D05BB9634514D010
:104AC0000902B1FA81F39940BCEB030CC00140F03C
:104AD0000040C1E70002B0FA80FC10FA0CF0B3EB22
:104AE0000C0CC90141F00041B6E7100070474000CE
:104AF0000AD0490008D010F1807F94BF11F1807F67
:104B000002E042F0FF407047D043704700280AD0CF
:104B1000B0FA80F18840D1F19D01C905020672F119
:104B2000004241EB10207047C0F3C7517E390EDDC3
:104B3000C217D1F1200106DD000240F00040C8405C
:104B4000104450407047D04380F000407047002030
:104B500070470000C0F3C75181B1FF2906D0C110D2
:104B6000400721F0E04101F16051704741020CBF64
:104B700040F4E0016FF000410020704700F0004178
:104B800000020AD0B0FA80FC00FA0CF001F160518A
:104B9000A1EB0C5101EBD0214005704701F0004220
:104BA0008B1AA3F16051B1F5801F0ADBB1F17F6F61
:104BB0001FD242EAC102C10071F1004142EB5070C4
:104BC00070470B15C3F10903212B10D2890241EA6A
:104BD000905180020128494141F0004121FA03F03F
:104BE000C3F12003994071F100415041704710001A
:104BF00070476FF0000013EB103F5CBF000E42EAFD
:104C0000C05070474FF0807C1CEB400F94BF1CEBF2
:104C1000410F05E040EA010C1CEB0C0F01D2884269
:104C2000704718BF814270474FF0807C1CEB400FEB
:104C300094BF1CEB410F05E040EA010C1CEB0C0F8C
:104C400001D28142704718BF88427047D2B2203AE1
:104C500022BF21FA02F0002170472032D141D0401A
:104C600048409140D14048407047000038B5044664
:104C7000DFF820530122402100F015F8012200F056
:104C800011F80A20FFF712FB002200F00BF80A20AF
:104C9000FFF70CFB3220FFF709FB012020700021F9
:104CA000A17031BD10212846FEF7D5BA2DE9FC418F
:104CB000044603216846FEF717FE6078B64FB74DED
:104CC000642616280FF2C42800F2AC80DFE800F05A
:104CD0000C14181C2F32363F42464A4E52565A790F
:104CE0007C8084889199A100D4F80400AFA18268E7
:104CF00008681060042093E0D4F80400ADA17AE0C5
:104D0000D4F80400AFA16EE0DFF89402B1A10278FC
:104D1000684600F0F5F96068A24980682522FCF732
:104D200013FB60688068694600F00AFA3EE060683C
:104D3000AAA168E0D4F80400ACA102E0D4F8040011
:104D4000AFA180680F22FCF7FFFA0F2068E06068CF
:104D5000B0A148E0D4F80400B2A154E0D4F80400B3
:104D6000B4A140E05FF00A02B6A154E05FF00A028D
:104D7000B7A150E0D4F80400B8A134E05FF00A0213
:104D8000BAA102E05FF00A02BBA160688068FCF78C
:104D9000DBFA2878642190FBF1F106FB11066068CC
:104DA000806806EBC606B91900F0CAF96068806829
:104DB000414600F0C5F96468A068FCF78FFAA0705E
:104DC00030E06068AFA10EE0D4F80400B1A10AE0C1
:104DD000D4F80400B3A106E0D4F80400B5A102E0C1
:104DE000D4F80400B7A180680B22FCF7ADFA0B20C1
:104DF00016E06068B7A180680D22FCF7A5FA0D20C7
:104E00000EE06068B7A180680C22FCF79DFA0C20C8
:104E100006E00A22B7A160688068FCF795FA0A20CC
:104E200061688870BDE8F38180B54268506858A118
:104E300000F095F900B1012002BD000038B504462C
:104E4000A07803286ED8DFE800F0021324606268BF
:104E500090684FF48075294600F098F960684068C2
:104E6000294600F093F92046FFF720FF012058E083
:104E7000606882785AB100F075F80120FFF716FAE1
:104E80004FF47A710120FEF7FAFC022049E000217C
:104E900039E00120FEF7ECFC20B90120FEF7F7FC19
:104EA0000320A07060680178C1F38002002A39D025
:104EB00001F0FB0101700120FEF7E9FC2046FFF73D
:104EC000B3FFF8B16078162819D1022020700022B3
:104ED00040213048FEF7BFF96420FFF7E7F9616829
:104EE00032A08A6801681160042061688870606877
:104EF000827800F037F80120FFF7D8F910E0401C65
:104F000060700DE00321A17031BDE078401CE070BD
:104F1000C0B2062804DB0020E0700321217031BDFF
:104F20000020A07031BD10B5044660680178C1F35F
:104F30008002B2B101F0FB01017000F04DF9606830
:104F400082684178406800F080FA61688870606823
:104F5000827832B100F006F8BDE810400120FFF77A
:104F6000A5B910BD8168C068FCF7E3BF01780329CB
:104F700008D8DFE801F00203040577E65EE7D2E730
:104F80000021017070470848F0E700000D0A00009A
:104F90004F4B0000000801409C550008FC00002019
:104FA000FD000020085F00084800002041540D0A61
:104FB0000000000041542B42524154453D30330D16
:104FC0000A00000041542B4E45543D30300D0A007C
:104FD00000000000253032580000000041542B4DE5
:104FE0004F44453D30310D0A0000000041542B5420
:104FF0005052454D3D303030380D0A000000000061
:1050000041542B525052454D3D303146340D0A002B
:105010000000000041542B4C44523D30300D0A003A
:105020000000000041542B53594E433D31320D0ACC
:105030000000000041542B504F573D31340D0A0001
:105040000000000041542B42573D30370D0A00004C
:1050500041542B43523D30310D0A000041542B4343
:1050600052433D30300D0A000000000041542B54E3
:10507000465245513D00000041542B524652455185
:105080003D00000041542B5453463D30390D0A0079
:105090000000000041542B5253463D30390D0A00A8
:1050A0000000000041542B5449513D30300D0A009E
:1050B0000000000041542B5249513D30300D0A0090
:1050C0000000000041542B5349503D30300D0A0080
:1050D0000000000041542B4C43503D303030300D27
:1050E0000A00000041542B545950453D30300D0A00
:1050F0000000000041542B52583D30300D0A000092
:105100000CB430B583B00A4606A9029104460025C6
:105110000194009502AB01A9084878441E30FAF7C3
:10512000E5FF019A157000284EBF04460198041B44
:10513000204603B030BC5DF80CFB00BFC3C2FFFFCC
:10514000034600E05B1C1A78002AFBD111F801CB62
:1051500083F800C013F8012B002AF7D1704770B50F
:105160000D462C7834B970BD11F8013F1678B34262
:1051700006D0401C2146FCF777F828B101462A46A4
:1051800012F8013F002BEFD170BD0000002200F0AB
:10519000BDB9000010B5032904461CDCA1701AD863
:1051A000DFE801F00205090F0120607010BD002149
:1051B0006170012001E0002060702169BDE81040AD
:1051C00008470120607021698847A168E078BDE840
:1051D0001040FEF754BB10BD03210148DAE7000080
:1051E00064000020FEB500210091C04DC04C95E840
:1051F0000F00FDF7DEFA2080BE4DBF4801786180C8
:105200004078A080A888E080E98821812889608191
:1052100028466989A181FEF76BFB2878E0816978CF
:10522000218240EA4100AA78628240EA8200EB785B
:10523000A38240EAC300E0820022B04800EB820370
:105240001D69019504EB820301AD03F118062F6877
:105250003760521C5D8B00F021F81D8B00F02BF89D
:105260001E8300F021F85E83E8DB002200EB82035E
:105270009D68019504EB820301AD03F120062F68C0
:105280003760521C5D8C00F009F81D8C00F013F89B
:105290001E8400F009F85E84E8DBF7BD8DF801504C
:1052A0002E0A8DF8006070479DF802509DF803604B
:1052B00046EA052670478DF803502E0A8DF80260E5
:1052C000022A9DF800509DF8016046EA05267047C5
:1052D000F8B515460C462218152A01DB0020F2BD50
:1052E000874A1378824A2B704900A97003266E7092
:1052F00000210AE00E1832F8167005EB41033F0A50
:10530000DF70491C32F816601E71A142F2DB6400A6
:10531000E41CA1B2284600F029F9A3B2020A641CD9
:10532000EA54A1B2641C6854A0B2F2BD38B5034679
:1053300008466F49734D704C1A4621F8120002005E
:1053400018BF01221BB1022B0FD007D331BD291D7D
:10535000FDF7DAF96C480122027001E06A702270F0
:105360002846BDE83240FEF7F3B92046BDE8384094
:10537000D2B20021FFF73AB92DE9F84F80468946AD
:1053800000244646DFF880A15E4DDFF86CB1584F2F
:1053900014E0B88800B10120B8800021BA88D2B2E8
:1053A0005846FFF723F908E0788800B1012078809B
:1053B0000124788868708BF80000761C09EB0800DF
:1053C00086420DDA1EB1022EE3D0EDD3F5E7388820
:1053D000291DFDF799F901208AF800000124ECE766
:1053E00024B12846BDE8F24FFEF7B2B9BDE8F18F0F
:1053F000F8B515461C4600220B0024D00F187F1E5E
:10540000032F20DA3A4F0DE005EB4203DE794FEA35
:10541000062E161827F816E0521C1B7A43EA0E03D4
:1054200027F816308A42EFDBFFF7A6FF062229464F
:105430002046FBF789FF0621204600F097F8010A75
:10544000A171E07108221046F2BD2DE9F0420D462F
:1054500004462B49207891460A780027904214D1BF
:10546000052D12DB601910F8021D467846EA012668
:10547000A91E89B2204600F079F8864205D1A078AD
:10548000E67846EA0026152E01DB00202AE0FFF729
:10549000A9FE6078032804D006280BD0102819D064
:1054A0001FE0237961794A4641EA0321F0B2FFF710
:1054B0000FFF15E0022E14DC2A4621464846FBF772
:1054C00043FF2079617941EA0021F0B2FFF72EFF16
:1054D0002F4606E061794B462246F0B2FFF788FF7F
:1054E0000746F8B2BDE8F082000000001C0C002066
:1054F000D00B00202C0C0020480C00203000002095
:10550000FC000020180C00204A0C0020401810F06D
:10551000030308D0C91A1FD3DB0748BF00F8012DC9
:1055200028BF20F8022D130030B414461546103958
:1055300028BF20E93C00FAD8490728BF20E90C0021
:1055400048BF40F8042D890028BF20F8022D48BF2D
:1055500000F8012D30BC7047C91818BF00F8012DA4
:10556000CB0728BF00F8012D7047000030B5024678
:10557000FF20FF23084C07E012F8015B5D40635DEC
:105580004340601990F800010D46691EADB2002D30
:10559000F2D140EA032030BD2059000831433035B4
:1055A0003238323000314330383335363000314311
:1055B00030423432413000314330453446453000CA
:1055C00031433131354432300031433134364136A4
:1055D00030003143313737374130003143314138C2
:1055E00034453000314331443932323000314332B6
:1055F0003039463630003143323341434130003197
:105600004332364239453000314332394337323044
:105610000031433243443436300031433246453161
:105620004130003143333245454530003143333555
:10563000464332300031433339303936300031435C
:105640003343313641300031433346323345300045
:10565000314334323331323000314334353345361F
:105660003000314334383442413000314334423524
:105670003845300031433445363632300031433519
:105680003137333630003143353438304130003132
:1056900043353738444530003143354139423230A3
:1056A00000314335444138363000314336304235DD
:1056B00041300031433633433245300031433636D2
:1056C00044303230003143363944443630003143BF
:1056D0003643454141300031433646463745300078
:1056E000314337333035323000314337363132369B
:1056F000300031433739314641300031433743328E
:10570000434530003143374633413230003143386E
:10571000323437363000314338353534413000319A
:10572000433838363145300031433842364632301E
:105730000031433845374336300031433931383949
:10574000413000314339343936453000314339373F
:105750004134323000314339414231363000314337
:1057600039444245413000314341304342453000E5
:1057700031434133443932300031434136453636C6
:1057800030003143413946334130003143414430E8
:1057900030453000314342303045323000314342F1
:1057A00033314236300031434236323841300031F5
:1057B000434239333545300031434243343332308C
:1057C00000314342463530363000314343323544B0
:1057D0004130003143433536414530003143433891
:1057E00037383230003143434238353630003143A8
:1057F0004345393241300031434431394645300068
:10580000314344344144323000314344374241361D
:105810003000314344414337413000314344444434
:105820003445300031434530453232300031434554
:10583000334546363000314345364643413000312A
:1058400043454130394530003143454431373230EA
:105850000031434630323436300031434633333141
:1058600041300031434636334545300031434639F7
:10587000344332300031434643353936300031430A
:1058800046463636413000314430323733453000F9
:1058900031443035383132300031443038384536D3
:1058A00030003144304239424130003144304541CA
:1058B00038453000314431314236323000314431E4
:1058C00034433336300031443137443041300031D5
:1058D0004431414444453000314431444542323042
:1058E00000314432304638363000314432343035BD
:1058F0004130003144323731324530003144324199
:105900003230323000314432443244363000314497
:105910003330334141300031443333343745300084
:1059200000C1814001C0804101C0804100C181406F
:1059300001C0804100C1814000C1814001C080415F
:1059400001C0804100C1814000C1814001C080414F
:1059500000C1814001C0804101C0804100C181403F
:1059600001C0804100C1814000C1814001C080412F
:1059700000C1814001C0804101C0804100C181401F
:1059800000C1814001C0804101C0804100C181400F
:1059900001C0804100C1814000C1814001C08041FF
:1059A00001C0804100C1814000C1814001C08041EF
:1059B00000C1814001C0804101C0804100C18140DF
:1059C00000C1814001C0804101C0804100C18140CF
:1059D00001C0804100C1814000C1814001C08041BF
:1059E00000C1814001C0804101C0804100C18140AF
:1059F00001C0804100C1814000C1814001C080419F
:105A000001C0804100C1814000C1814001C080418E
:105A100000C1814001C0804101C0804100C181407E
:105A200000C0C101C30302C2C60607C705C5C4043E
:105A3000CC0C0DCD0FCFCE0E0ACACB0BC90908C8AE
:105A4000D81819D91BDBDA1A1EDEDF1FDD1D1CDC9E
:105A500014D4D515D71716D6D21213D311D1D0100E
:105A6000F03031F133F3F23236F6F737F53534F4FE
:105A70003CFCFD3DFF3F3EFEFA3A3BFB39F9F8386E
:105A800028E8E929EB2B2AEAEE2E2FEF2DEDEC2C5E
:105A9000E42425E527E7E62622E2E323E12120E0CE
:105AA000A06061A163A3A26266A6A767A56564A4BE
:105AB0006CACAD6DAF6F6EAEAA6A6BAB69A9A8682E
:105AC00078B8B979BB7B7ABABE7E7FBF7DBDBC7C1E
:105AD000B47475B577B7B67672B2B373B17170B08E
